{
  "_format": "hh-sol-artifact-1",
  "contractName": "CardToken",
  "sourceName": "contracts/CardToken.sol",
  "abi": [
    {
      "inputs": [],
      "stateMutability": "nonpayable",
      "type": "constructor"
    },
    {
      "anonymous": false,
      "inputs": [
        {
          "indexed": true,
          "internalType": "address",
          "name": "owner",
          "type": "address"
        },
        {
          "indexed": true,
          "internalType": "address",
          "name": "approved",
          "type": "address"
        },
        {
          "indexed": true,
          "internalType": "uint256",
          "name": "tokenId",
          "type": "uint256"
        }
      ],
      "name": "Approval",
      "type": "event"
    },
    {
      "anonymous": false,
      "inputs": [
        {
          "indexed": true,
          "internalType": "address",
          "name": "owner",
          "type": "address"
        },
        {
          "indexed": true,
          "internalType": "address",
          "name": "operator",
          "type": "address"
        },
        {
          "indexed": false,
          "internalType": "bool",
          "name": "approved",
          "type": "bool"
        }
      ],
      "name": "ApprovalForAll",
      "type": "event"
    },
    {
      "anonymous": false,
      "inputs": [
        {
          "indexed": true,
          "internalType": "address",
          "name": "owner",
          "type": "address"
        },
        {
          "indexed": false,
          "internalType": "uint256",
          "name": "id",
          "type": "uint256"
        },
        {
          "indexed": false,
          "internalType": "string",
          "name": "name",
          "type": "string"
        }
      ],
      "name": "NewCard",
      "type": "event"
    },
    {
      "anonymous": false,
      "inputs": [
        {
          "indexed": true,
          "internalType": "address",
          "name": "previousOwner",
          "type": "address"
        },
        {
          "indexed": true,
          "internalType": "address",
          "name": "newOwner",
          "type": "address"
        }
      ],
      "name": "OwnershipTransferred",
      "type": "event"
    },
    {
      "anonymous": false,
      "inputs": [
        {
          "indexed": true,
          "internalType": "address",
          "name": "from",
          "type": "address"
        },
        {
          "indexed": true,
          "internalType": "address",
          "name": "to",
          "type": "address"
        },
        {
          "indexed": true,
          "internalType": "uint256",
          "name": "tokenId",
          "type": "uint256"
        }
      ],
      "name": "Transfer",
      "type": "event"
    },
    {
      "inputs": [
        {
          "internalType": "address",
          "name": "to",
          "type": "address"
        },
        {
          "internalType": "uint256",
          "name": "tokenId",
          "type": "uint256"
        }
      ],
      "name": "approve",
      "outputs": [],
      "stateMutability": "nonpayable",
      "type": "function"
    },
    {
      "inputs": [
        {
          "internalType": "address",
          "name": "owner",
          "type": "address"
        }
      ],
      "name": "balanceOf",
      "outputs": [
        {
          "internalType": "uint256",
          "name": "",
          "type": "uint256"
        }
      ],
      "stateMutability": "view",
      "type": "function"
    },
    {
      "inputs": [
        {
          "internalType": "uint256",
          "name": "",
          "type": "uint256"
        }
      ],
      "name": "cards",
      "outputs": [
        {
          "internalType": "string",
          "name": "name",
          "type": "string"
        },
        {
          "internalType": "uint256",
          "name": "id",
          "type": "uint256"
        },
        {
          "internalType": "uint256",
          "name": "cardNum",
          "type": "uint256"
        }
      ],
      "stateMutability": "view",
      "type": "function"
    },
    {
      "inputs": [
        {
          "internalType": "uint256",
          "name": "tokenId",
          "type": "uint256"
        }
      ],
      "name": "getApproved",
      "outputs": [
        {
          "internalType": "address",
          "name": "",
          "type": "address"
        }
      ],
      "stateMutability": "view",
      "type": "function"
    },
    {
      "inputs": [],
      "name": "getCardTokens",
      "outputs": [
        {
          "components": [
            {
              "internalType": "string",
              "name": "name",
              "type": "string"
            },
            {
              "internalType": "uint256",
              "name": "id",
              "type": "uint256"
            },
            {
              "internalType": "uint256",
              "name": "cardNum",
              "type": "uint256"
            }
          ],
          "internalType": "struct CardToken.Card[]",
          "name": "",
          "type": "tuple[]"
        }
      ],
      "stateMutability": "view",
      "type": "function"
    },
    {
      "inputs": [
        {
          "internalType": "address",
          "name": "_owner",
          "type": "address"
        }
      ],
      "name": "getOwnerCards",
      "outputs": [
        {
          "components": [
            {
              "internalType": "string",
              "name": "name",
              "type": "string"
            },
            {
              "internalType": "uint256",
              "name": "id",
              "type": "uint256"
            },
            {
              "internalType": "uint256",
              "name": "cardNum",
              "type": "uint256"
            }
          ],
          "internalType": "struct CardToken.Card[]",
          "name": "",
          "type": "tuple[]"
        }
      ],
      "stateMutability": "view",
      "type": "function"
    },
    {
      "inputs": [
        {
          "internalType": "address",
          "name": "owner",
          "type": "address"
        },
        {
          "internalType": "address",
          "name": "operator",
          "type": "address"
        }
      ],
      "name": "isApprovedForAll",
      "outputs": [
        {
          "internalType": "bool",
          "name": "",
          "type": "bool"
        }
      ],
      "stateMutability": "view",
      "type": "function"
    },
    {
      "inputs": [
        {
          "internalType": "string",
          "name": "_id",
          "type": "string"
        }
      ],
      "name": "isNameInCards",
      "outputs": [
        {
          "internalType": "bool",
          "name": "",
          "type": "bool"
        }
      ],
      "stateMutability": "view",
      "type": "function"
    },
    {
      "inputs": [
        {
          "internalType": "string",
          "name": "_name",
          "type": "string"
        },
        {
          "internalType": "uint256",
          "name": "_cardNum",
          "type": "uint256"
        }
      ],
      "name": "mintCard",
      "outputs": [],
      "stateMutability": "payable",
      "type": "function"
    },
    {
      "inputs": [
        {
          "internalType": "uint256",
          "name": "_collectionCardCount",
          "type": "uint256"
        }
      ],
      "name": "mintRandomCard",
      "outputs": [],
      "stateMutability": "nonpayable",
      "type": "function"
    },
    {
      "inputs": [],
      "name": "name",
      "outputs": [
        {
          "internalType": "string",
          "name": "",
          "type": "string"
        }
      ],
      "stateMutability": "view",
      "type": "function"
    },
    {
      "inputs": [
        {
          "internalType": "string",
          "name": "_collection",
          "type": "string"
        },
        {
          "internalType": "uint256",
          "name": "_size",
          "type": "uint256"
        }
      ],
      "name": "openBooster",
      "outputs": [],
      "stateMutability": "payable",
      "type": "function"
    },
    {
      "inputs": [],
      "name": "owner",
      "outputs": [
        {
          "internalType": "address",
          "name": "",
          "type": "address"
        }
      ],
      "stateMutability": "view",
      "type": "function"
    },
    {
      "inputs": [
        {
          "internalType": "uint256",
          "name": "tokenId",
          "type": "uint256"
        }
      ],
      "name": "ownerOf",
      "outputs": [
        {
          "internalType": "address",
          "name": "",
          "type": "address"
        }
      ],
      "stateMutability": "view",
      "type": "function"
    },
    {
      "inputs": [],
      "name": "renounceOwnership",
      "outputs": [],
      "stateMutability": "nonpayable",
      "type": "function"
    },
    {
      "inputs": [
        {
          "internalType": "address",
          "name": "from",
          "type": "address"
        },
        {
          "internalType": "address",
          "name": "to",
          "type": "address"
        },
        {
          "internalType": "uint256",
          "name": "tokenId",
          "type": "uint256"
        }
      ],
      "name": "safeTransferFrom",
      "outputs": [],
      "stateMutability": "nonpayable",
      "type": "function"
    },
    {
      "inputs": [
        {
          "internalType": "address",
          "name": "from",
          "type": "address"
        },
        {
          "internalType": "address",
          "name": "to",
          "type": "address"
        },
        {
          "internalType": "uint256",
          "name": "tokenId",
          "type": "uint256"
        },
        {
          "internalType": "bytes",
          "name": "data",
          "type": "bytes"
        }
      ],
      "name": "safeTransferFrom",
      "outputs": [],
      "stateMutability": "nonpayable",
      "type": "function"
    },
    {
      "inputs": [
        {
          "internalType": "address",
          "name": "operator",
          "type": "address"
        },
        {
          "internalType": "bool",
          "name": "approved",
          "type": "bool"
        }
      ],
      "name": "setApprovalForAll",
      "outputs": [],
      "stateMutability": "nonpayable",
      "type": "function"
    },
    {
      "inputs": [
        {
          "internalType": "bytes4",
          "name": "interfaceId",
          "type": "bytes4"
        }
      ],
      "name": "supportsInterface",
      "outputs": [
        {
          "internalType": "bool",
          "name": "",
          "type": "bool"
        }
      ],
      "stateMutability": "view",
      "type": "function"
    },
    {
      "inputs": [],
      "name": "symbol",
      "outputs": [
        {
          "internalType": "string",
          "name": "",
          "type": "string"
        }
      ],
      "stateMutability": "view",
      "type": "function"
    },
    {
      "inputs": [
        {
          "internalType": "uint256",
          "name": "tokenId",
          "type": "uint256"
        }
      ],
      "name": "tokenURI",
      "outputs": [
        {
          "internalType": "string",
          "name": "",
          "type": "string"
        }
      ],
      "stateMutability": "view",
      "type": "function"
    },
    {
      "inputs": [
        {
          "internalType": "address",
          "name": "from",
          "type": "address"
        },
        {
          "internalType": "address",
          "name": "to",
          "type": "address"
        },
        {
          "internalType": "uint256",
          "name": "tokenId",
          "type": "uint256"
        }
      ],
      "name": "transferFrom",
      "outputs": [],
      "stateMutability": "nonpayable",
      "type": "function"
    },
    {
      "inputs": [
        {
          "internalType": "address",
          "name": "newOwner",
          "type": "address"
        }
      ],
      "name": "transferOwnership",
      "outputs": [],
      "stateMutability": "nonpayable",
      "type": "function"
    },
    {
      "inputs": [
        {
          "internalType": "uint256",
          "name": "_fee",
          "type": "uint256"
        }
      ],
      "name": "updateFee",
      "outputs": [],
      "stateMutability": "nonpayable",
      "type": "function"
    },
    {
      "inputs": [],
      "name": "withdraw",
      "outputs": [],
      "stateMutability": "payable",
      "type": "function"
    }
  ],
  "bytecode": "0x6080604052670de0b6b3a76400006008553480156200001d57600080fd5b506040518060400160405280600981526020017f43617264546f6b656e00000000000000000000000000000000000000000000008152506040518060400160405280600381526020017f43544b000000000000000000000000000000000000000000000000000000000081525081600090816200009b91906200041e565b508060019081620000ad91906200041e565b505050620000d0620000c4620000d660201b60201c565b620000de60201b60201c565b62000505565b600033905090565b6000600660009054906101000a900473ffffffffffffffffffffffffffffffffffffffff16905081600660006101000a81548173ffffffffffffffffffffffffffffffffffffffff021916908373ffffffffffffffffffffffffffffffffffffffff1602179055508173ffffffffffffffffffffffffffffffffffffffff168173ffffffffffffffffffffffffffffffffffffffff167f8be0079c531659141344cd1fd0a4f28419497f9722a3daafe3b4186f6b6457e060405160405180910390a35050565b600081519050919050565b7f4e487b7100000000000000000000000000000000000000000000000000000000600052604160045260246000fd5b7f4e487b7100000000000000000000000000000000000000000000000000000000600052602260045260246000fd5b600060028204905060018216806200022657607f821691505b6020821081036200023c576200023b620001de565b5b50919050565b60008190508160005260206000209050919050565b60006020601f8301049050919050565b600082821b905092915050565b600060088302620002a67fffffffffffffffffffffffffffffffffffffffffffffffffffffffffffffffff8262000267565b620002b2868362000267565b95508019841693508086168417925050509392505050565b6000819050919050565b6000819050919050565b6000620002ff620002f9620002f384620002ca565b620002d4565b620002ca565b9050919050565b6000819050919050565b6200031b83620002de565b620003336200032a8262000306565b84845462000274565b825550505050565b600090565b6200034a6200033b565b6200035781848462000310565b505050565b5b818110156200037f576200037360008262000340565b6001810190506200035d565b5050565b601f821115620003ce57620003988162000242565b620003a38462000257565b81016020851015620003b3578190505b620003cb620003c28562000257565b8301826200035c565b50505b505050565b600082821c905092915050565b6000620003f360001984600802620003d3565b1980831691505092915050565b60006200040e8383620003e0565b9150826002028217905092915050565b6200042982620001a4565b67ffffffffffffffff811115620004455762000444620001af565b5b6200045182546200020d565b6200045e82828562000383565b600060209050601f83116001811462000496576000841562000481578287015190505b6200048d858262000400565b865550620004fd565b601f198416620004a68662000242565b60005b82811015620004d057848901518255600182019150602085019450602081019050620004a9565b86831015620004f05784890151620004ec601f891682620003e0565b8355505b6001600288020188555050505b505050505050565b613f4180620005156000396000f3fe6080604052600436106101665760003560e01c8063715018a6116100d1578063a22cb4651161008a578063bec77cb111610064578063bec77cb1146104ff578063c87b56dd1461053c578063e985e9c514610579578063f2fde38b146105b657610166565b8063a22cb46514610470578063b23be13314610499578063b88d4fde146104d657610166565b8063715018a61461037f5780638da5cb5b146103965780638dc10768146103c15780638e55332d146104005780639012c4a81461041c57806395d89b411461044557610166565b8063306b0fcc11610123578063306b0fcc1461028b578063383def3f146102a75780633ccfd60b146102d257806342842e0e146102dc5780636352211e1461030557806370a082311461034257610166565b806301ffc9a71461016b57806306fdde03146101a8578063081812fc146101d3578063095ea7b3146102105780630d6a165e1461023957806323b872dd14610262575b600080fd5b34801561017757600080fd5b50610192600480360381019061018d9190612754565b6105df565b60405161019f919061279c565b60405180910390f35b3480156101b457600080fd5b506101bd6106c1565b6040516101ca9190612847565b60405180910390f35b3480156101df57600080fd5b506101fa60048036038101906101f5919061289f565b610753565b604051610207919061290d565b60405180910390f35b34801561021c57600080fd5b5061023760048036038101906102329190612954565b610799565b005b34801561024557600080fd5b50610260600480360381019061025b919061289f565b6108b0565b005b34801561026e57600080fd5b5061028960048036038101906102849190612994565b610900565b005b6102a560048036038101906102a09190612b1c565b610960565b005b3480156102b357600080fd5b506102bc6109b3565b6040516102c99190612ce3565b60405180910390f35b6102da610ab8565b005b3480156102e857600080fd5b5061030360048036038101906102fe9190612994565b610b16565b005b34801561031157600080fd5b5061032c6004803603810190610327919061289f565b610b36565b604051610339919061290d565b60405180910390f35b34801561034e57600080fd5b5061036960048036038101906103649190612d05565b610bbc565b6040516103769190612d41565b60405180910390f35b34801561038b57600080fd5b50610394610c73565b005b3480156103a257600080fd5b506103ab610c87565b6040516103b8919061290d565b60405180910390f35b3480156103cd57600080fd5b506103e860048036038101906103e3919061289f565b610cb1565b6040516103f793929190612d5c565b60405180910390f35b61041a60048036038101906104159190612b1c565b610d73565b005b34801561042857600080fd5b50610443600480360381019061043e919061289f565b611161565b005b34801561045157600080fd5b5061045a611173565b6040516104679190612847565b60405180910390f35b34801561047c57600080fd5b5061049760048036038101906104929190612dc6565b611205565b005b3480156104a557600080fd5b506104c060048036038101906104bb9190612e06565b61121b565b6040516104cd919061279c565b60405180910390f35b3480156104e257600080fd5b506104fd60048036038101906104f89190612ef0565b6112cf565b005b34801561050b57600080fd5b5061052660048036038101906105219190612d05565b611331565b6040516105339190612ce3565b60405180910390f35b34801561054857600080fd5b50610563600480360381019061055e919061289f565b6114fd565b6040516105709190612847565b60405180910390f35b34801561058557600080fd5b506105a0600480360381019061059b9190612f73565b611565565b6040516105ad919061279c565b60405180910390f35b3480156105c257600080fd5b506105dd60048036038101906105d89190612d05565b6115f9565b005b60007f80ac58cd000000000000000000000000000000000000000000000000000000007bffffffffffffffffffffffffffffffffffffffffffffffffffffffff1916827bffffffffffffffffffffffffffffffffffffffffffffffffffffffff191614806106aa57507f5b5e139f000000000000000000000000000000000000000000000000000000007bffffffffffffffffffffffffffffffffffffffffffffffffffffffff1916827bffffffffffffffffffffffffffffffffffffffffffffffffffffffff1916145b806106ba57506106b98261167c565b5b9050919050565b6060600080546106d090612fe2565b80601f01602080910402602001604051908101604052809291908181526020018280546106fc90612fe2565b80156107495780601f1061071e57610100808354040283529160200191610749565b820191906000526020600020905b81548152906001019060200180831161072c57829003601f168201915b5050505050905090565b600061075e826116e6565b6004600083815260200190815260200160002060009054906101000a900473ffffffffffffffffffffffffffffffffffffffff169050919050565b60006107a482610b36565b90508073ffffffffffffffffffffffffffffffffffffffff168373ffffffffffffffffffffffffffffffffffffffff1603610814576040517f08c379a000000000000000000000000000000000000000000000000000000000815260040161080b90613085565b60405180910390fd5b8073ffffffffffffffffffffffffffffffffffffffff16610833611731565b73ffffffffffffffffffffffffffffffffffffffff16148061086257506108618161085c611731565b611565565b5b6108a1576040517f08c379a000000000000000000000000000000000000000000000000000000000815260040161089890613117565b60405180910390fd5b6108ab8383611739565b505050565b60006108bb826117f2565b90506108fc6040518060400160405280600981526020017f746f5f6368616e6765000000000000000000000000000000000000000000000081525082611837565b5050565b61091161090b611731565b8261192b565b610950576040517f08c379a0000000000000000000000000000000000000000000000000000000008152600401610947906131a9565b60405180910390fd5b61095b8383836119c0565b505050565b6008543410156109a5576040517f08c379a000000000000000000000000000000000000000000000000000000000815260040161099c90613215565b60405180910390fd5b6109af8282611837565b5050565b60606009805480602002602001604051908101604052809291908181526020016000905b82821015610aaf5783829060005260206000209060030201604051806060016040529081600082018054610a0a90612fe2565b80601f0160208091040260200160405190810160405280929190818152602001828054610a3690612fe2565b8015610a835780601f10610a5857610100808354040283529160200191610a83565b820191906000526020600020905b815481529060010190602001808311610a6657829003601f168201915b5050505050815260200160018201548152602001600282015481525050815260200190600101906109d7565b50505050905090565b610ac0611cb9565b6000610aca610c87565b90508073ffffffffffffffffffffffffffffffffffffffff166108fc479081150290604051600060405180830381858888f19350505050158015610b12573d6000803e3d6000fd5b5050565b610b31838383604051806020016040528060008152506112cf565b505050565b600080610b4283611d37565b9050600073ffffffffffffffffffffffffffffffffffffffff168173ffffffffffffffffffffffffffffffffffffffff1603610bb3576040517f08c379a0000000000000000000000000000000000000000000000000000000008152600401610baa90613281565b60405180910390fd5b80915050919050565b60008073ffffffffffffffffffffffffffffffffffffffff168273ffffffffffffffffffffffffffffffffffffffff1603610c2c576040517f08c379a0000000000000000000000000000000000000000000000000000000008152600401610c2390613313565b60405180910390fd5b600360008373ffffffffffffffffffffffffffffffffffffffff1673ffffffffffffffffffffffffffffffffffffffff168152602001908152602001600020549050919050565b610c7b611cb9565b610c856000611d74565b565b6000600660009054906101000a900473ffffffffffffffffffffffffffffffffffffffff16905090565b60098181548110610cc157600080fd5b9060005260206000209060030201600091509050806000018054610ce490612fe2565b80601f0160208091040260200160405190810160405280929190818152602001828054610d1090612fe2565b8015610d5d5780601f10610d3257610100808354040283529160200191610d5d565b820191906000526020600020905b815481529060010190602001808311610d4057829003601f168201915b5050505050908060010154908060020154905083565b6000600467ffffffffffffffff811115610d9057610d8f6129f1565b5b604051908082528060200260200182016040528015610dc957816020015b610db66126c7565b815260200190600190039081610dae5790505b5090506000604051602001610ddd9061338a565b6040516020818303038152906040528051906020012084604051602001610e0491906133d0565b6040516020818303038152906040528051906020012003610e2f57674563918244f400009050610f01565b604051602001610e3e90613433565b6040516020818303038152906040528051906020012084604051602001610e6591906133d0565b6040516020818303038152906040528051906020012003610e9057678ac7230489e800009050610f00565b604051602001610e9f90613494565b6040516020818303038152906040528051906020012084604051602001610ec691906133d0565b6040516020818303038152906040528051906020012003610ef25768015af1d78b58c400009050610eff565b6802b5e3af16b188000090505b5b5b80341015610f44576040517f08c379a0000000000000000000000000000000000000000000000000000000008152600401610f3b90613215565b60405180910390fd5b60005b600481101561115a576000610f668286610f6191906134d8565b6117f2565b90506000610f7382611e3a565b9050600087604051602001610f889190613532565b604051602081830303815290604052905060008183604051602001610fae929190613558565b60405160208183030381529060405290505b610fc98161121b565b1561103a57610fe28589610fdd91906134d8565b6117f2565b9350610fed84611e3a565b9250886040516020016110009190613532565b60405160208183030381529060405291508183604051602001611024929190613558565b6040516020818303038152906040529050610fc0565b6110448185611837565b6009600160075461105591906134d8565b815481106110665761106561357c565b5b906000526020600020906003020160405180606001604052908160008201805461108f90612fe2565b80601f01602080910402602001604051908101604052809291908181526020018280546110bb90612fe2565b80156111085780601f106110dd57610100808354040283529160200191611108565b820191906000526020600020905b8154815290600101906020018083116110eb57829003601f168201915b50505050508152602001600182015481526020016002820154815250508786815181106111385761113761357c565b5b6020026020010181905250505050508080611152906135ab565b915050610f47565b5050505050565b611169611cb9565b8060088190555050565b60606001805461118290612fe2565b80601f01602080910402602001604051908101604052809291908181526020018280546111ae90612fe2565b80156111fb5780601f106111d0576101008083540402835291602001916111fb565b820191906000526020600020905b8154815290600101906020018083116111de57829003601f168201915b5050505050905090565b611217611210611731565b8383611f08565b5050565b600080600090505b6009805490508110156112c4578260405160200161124191906133d0565b604051602081830303815290604052805190602001206009828154811061126b5761126a61357c565b5b906000526020600020906003020160000160405160200161128c919061368b565b60405160208183030381529060405280519060200120036112b15760019150506112ca565b80806112bc906135ab565b915050611223565b50600090505b919050565b6112e06112da611731565b8361192b565b61131f576040517f08c379a0000000000000000000000000000000000000000000000000000000008152600401611316906131a9565b60405180910390fd5b61132b84848484612074565b50505050565b6060600061133e83610bbc565b67ffffffffffffffff811115611357576113566129f1565b5b60405190808252806020026020018201604052801561139057816020015b61137d6126c7565b8152602001906001900390816113755790505b5090506000805b6009805490508110156114f2578473ffffffffffffffffffffffffffffffffffffffff166113c482610b36565b73ffffffffffffffffffffffffffffffffffffffff16036114df57600981815481106113f3576113f261357c565b5b906000526020600020906003020160405180606001604052908160008201805461141c90612fe2565b80601f016020809104026020016040519081016040528092919081815260200182805461144890612fe2565b80156114955780601f1061146a57610100808354040283529160200191611495565b820191906000526020600020905b81548152906001019060200180831161147857829003601f168201915b50505050508152602001600182015481526020016002820154815250508383815181106114c5576114c461357c565b5b602002602001018190525081806114db906135ab565b9250505b80806114ea906135ab565b915050611397565b508192505050919050565b6060611508826116e6565b60006115126120d0565b90506000815111611532576040518060200160405280600081525061155d565b8061153c84611e3a565b60405160200161154d929190613558565b6040516020818303038152906040525b915050919050565b6000600560008473ffffffffffffffffffffffffffffffffffffffff1673ffffffffffffffffffffffffffffffffffffffff16815260200190815260200160002060008373ffffffffffffffffffffffffffffffffffffffff1673ffffffffffffffffffffffffffffffffffffffff16815260200190815260200160002060009054906101000a900460ff16905092915050565b611601611cb9565b600073ffffffffffffffffffffffffffffffffffffffff168173ffffffffffffffffffffffffffffffffffffffff1603611670576040517f08c379a000000000000000000000000000000000000000000000000000000000815260040161166790613714565b60405180910390fd5b61167981611d74565b50565b60007f01ffc9a7000000000000000000000000000000000000000000000000000000007bffffffffffffffffffffffffffffffffffffffffffffffffffffffff1916827bffffffffffffffffffffffffffffffffffffffffffffffffffffffff1916149050919050565b6116ef816120e7565b61172e576040517f08c379a000000000000000000000000000000000000000000000000000000000815260040161172590613281565b60405180910390fd5b50565b600033905090565b816004600083815260200190815260200160002060006101000a81548173ffffffffffffffffffffffffffffffffffffffff021916908373ffffffffffffffffffffffffffffffffffffffff160217905550808273ffffffffffffffffffffffffffffffffffffffff166117ac83610b36565b73ffffffffffffffffffffffffffffffffffffffff167f8c5be1e5ebec7d5bd14f71427d1e84f3dd0314c0f7b2291e5b200ac8c7c3b92560405160405180910390a45050565b600080423360405160200161180892919061379d565b6040516020818303038152906040528051906020012060001c9050828161182f91906137f8565b915050919050565b6000604051806060016040528084815260200160075481526020018381525090506009819080600181540180825580915050600190039060005260206000209060030201600090919091909150600082015181600001908161189991906139c0565b50602082015181600101556040820151816002015550506118bc33600754612128565b3373ffffffffffffffffffffffffffffffffffffffff167fb3fa422253152603b2f147d59ed070dd9ed60ebee9f6ee5f07bd2be62df7df2860075485604051611906929190613a92565b60405180910390a260076000815480929190611921906135ab565b9190505550505050565b60008061193783610b36565b90508073ffffffffffffffffffffffffffffffffffffffff168473ffffffffffffffffffffffffffffffffffffffff16148061197957506119788185611565565b5b806119b757508373ffffffffffffffffffffffffffffffffffffffff1661199f84610753565b73ffffffffffffffffffffffffffffffffffffffff16145b91505092915050565b8273ffffffffffffffffffffffffffffffffffffffff166119e082610b36565b73ffffffffffffffffffffffffffffffffffffffff1614611a36576040517f08c379a0000000000000000000000000000000000000000000000000000000008152600401611a2d90613b34565b60405180910390fd5b600073ffffffffffffffffffffffffffffffffffffffff168273ffffffffffffffffffffffffffffffffffffffff1603611aa5576040517f08c379a0000000000000000000000000000000000000000000000000000000008152600401611a9c90613bc6565b60405180910390fd5b611ab28383836001612146565b8273ffffffffffffffffffffffffffffffffffffffff16611ad282610b36565b73ffffffffffffffffffffffffffffffffffffffff1614611b28576040517f08c379a0000000000000000000000000000000000000000000000000000000008152600401611b1f90613b34565b60405180910390fd5b6004600082815260200190815260200160002060006101000a81549073ffffffffffffffffffffffffffffffffffffffff02191690556001600360008573ffffffffffffffffffffffffffffffffffffffff1673ffffffffffffffffffffffffffffffffffffffff168152602001908152602001600020600082825403925050819055506001600360008473ffffffffffffffffffffffffffffffffffffffff1673ffffffffffffffffffffffffffffffffffffffff16815260200190815260200160002060008282540192505081905550816002600083815260200190815260200160002060006101000a81548173ffffffffffffffffffffffffffffffffffffffff021916908373ffffffffffffffffffffffffffffffffffffffff160217905550808273ffffffffffffffffffffffffffffffffffffffff168473ffffffffffffffffffffffffffffffffffffffff167fddf252ad1be2c89b69c2b068fc378daa952ba7f163c4a11628f55a4df523b3ef60405160405180910390a4611cb4838383600161214c565b505050565b611cc1611731565b73ffffffffffffffffffffffffffffffffffffffff16611cdf610c87565b73ffffffffffffffffffffffffffffffffffffffff1614611d35576040517f08c379a0000000000000000000000000000000000000000000000000000000008152600401611d2c90613c32565b60405180910390fd5b565b60006002600083815260200190815260200160002060009054906101000a900473ffffffffffffffffffffffffffffffffffffffff169050919050565b6000600660009054906101000a900473ffffffffffffffffffffffffffffffffffffffff16905081600660006101000a81548173ffffffffffffffffffffffffffffffffffffffff021916908373ffffffffffffffffffffffffffffffffffffffff1602179055508173ffffffffffffffffffffffffffffffffffffffff168173ffffffffffffffffffffffffffffffffffffffff167f8be0079c531659141344cd1fd0a4f28419497f9722a3daafe3b4186f6b6457e060405160405180910390a35050565b606060006001611e4984612152565b01905060008167ffffffffffffffff811115611e6857611e676129f1565b5b6040519080825280601f01601f191660200182016040528015611e9a5781602001600182028036833780820191505090505b509050600082602001820190505b600115611efd578080600190039150507f3031323334353637383961626364656600000000000000000000000000000000600a86061a8153600a8581611ef157611ef06137c9565b5b04945060008503611ea8575b819350505050919050565b8173ffffffffffffffffffffffffffffffffffffffff168373ffffffffffffffffffffffffffffffffffffffff1603611f76576040517f08c379a0000000000000000000000000000000000000000000000000000000008152600401611f6d90613c9e565b60405180910390fd5b80600560008573ffffffffffffffffffffffffffffffffffffffff1673ffffffffffffffffffffffffffffffffffffffff16815260200190815260200160002060008473ffffffffffffffffffffffffffffffffffffffff1673ffffffffffffffffffffffffffffffffffffffff16815260200190815260200160002060006101000a81548160ff0219169083151502179055508173ffffffffffffffffffffffffffffffffffffffff168373ffffffffffffffffffffffffffffffffffffffff167f17307eab39ab6107e8899845ad3d59bd9653f200f220920489ca2b5937696c3183604051612067919061279c565b60405180910390a3505050565b61207f8484846119c0565b61208b848484846122a5565b6120ca576040517f08c379a00000000000000000000000000000000000000000000000000000000081526004016120c190613d30565b60405180910390fd5b50505050565b606060405180602001604052806000815250905090565b60008073ffffffffffffffffffffffffffffffffffffffff1661210983611d37565b73ffffffffffffffffffffffffffffffffffffffff1614159050919050565b61214282826040518060200160405280600081525061242c565b5050565b50505050565b50505050565b600080600090507a184f03e93ff9f4daa797ed6e38ed64bf6a1f01000000000000000083106121b0577a184f03e93ff9f4daa797ed6e38ed64bf6a1f01000000000000000083816121a6576121a56137c9565b5b0492506040810190505b6d04ee2d6d415b85acef810000000083106121ed576d04ee2d6d415b85acef810000000083816121e3576121e26137c9565b5b0492506020810190505b662386f26fc10000831061221c57662386f26fc100008381612212576122116137c9565b5b0492506010810190505b6305f5e1008310612245576305f5e100838161223b5761223a6137c9565b5b0492506008810190505b612710831061226a5761271083816122605761225f6137c9565b5b0492506004810190505b6064831061228d5760648381612283576122826137c9565b5b0492506002810190505b600a831061229c576001810190505b80915050919050565b60006122c68473ffffffffffffffffffffffffffffffffffffffff16612487565b1561241f578373ffffffffffffffffffffffffffffffffffffffff1663150b7a026122ef611731565b8786866040518563ffffffff1660e01b81526004016123119493929190613da5565b6020604051808303816000875af192505050801561234d57506040513d601f19601f8201168201806040525081019061234a9190613e06565b60015b6123cf573d806000811461237d576040519150601f19603f3d011682016040523d82523d6000602084013e612382565b606091505b5060008151036123c7576040517f08c379a00000000000000000000000000000000000000000000000000000000081526004016123be90613d30565b60405180910390fd5b805181602001fd5b63150b7a0260e01b7bffffffffffffffffffffffffffffffffffffffffffffffffffffffff1916817bffffffffffffffffffffffffffffffffffffffffffffffffffffffff191614915050612424565b600190505b949350505050565b61243683836124aa565b61244360008484846122a5565b612482576040517f08c379a000000000000000000000000000000000000000000000000000000000815260040161247990613d30565b60405180910390fd5b505050565b6000808273ffffffffffffffffffffffffffffffffffffffff163b119050919050565b600073ffffffffffffffffffffffffffffffffffffffff168273ffffffffffffffffffffffffffffffffffffffff1603612519576040517f08c379a000000000000000000000000000000000000000000000000000000000815260040161251090613e7f565b60405180910390fd5b612522816120e7565b15612562576040517f08c379a000000000000000000000000000000000000000000000000000000000815260040161255990613eeb565b60405180910390fd5b612570600083836001612146565b612579816120e7565b156125b9576040517f08c379a00000000000000000000000000000000000000000000000000000000081526004016125b090613eeb565b60405180910390fd5b6001600360008473ffffffffffffffffffffffffffffffffffffffff1673ffffffffffffffffffffffffffffffffffffffff16815260200190815260200160002060008282540192505081905550816002600083815260200190815260200160002060006101000a81548173ffffffffffffffffffffffffffffffffffffffff021916908373ffffffffffffffffffffffffffffffffffffffff160217905550808273ffffffffffffffffffffffffffffffffffffffff16600073ffffffffffffffffffffffffffffffffffffffff167fddf252ad1be2c89b69c2b068fc378daa952ba7f163c4a11628f55a4df523b3ef60405160405180910390a46126c360008383600161214c565b5050565b60405180606001604052806060815260200160008152602001600081525090565b6000604051905090565b600080fd5b600080fd5b60007fffffffff0000000000000000000000000000000000000000000000000000000082169050919050565b612731816126fc565b811461273c57600080fd5b50565b60008135905061274e81612728565b92915050565b60006020828403121561276a576127696126f2565b5b60006127788482850161273f565b91505092915050565b60008115159050919050565b61279681612781565b82525050565b60006020820190506127b1600083018461278d565b92915050565b600081519050919050565b600082825260208201905092915050565b60005b838110156127f15780820151818401526020810190506127d6565b60008484015250505050565b6000601f19601f8301169050919050565b6000612819826127b7565b61282381856127c2565b93506128338185602086016127d3565b61283c816127fd565b840191505092915050565b60006020820190508181036000830152612861818461280e565b905092915050565b6000819050919050565b61287c81612869565b811461288757600080fd5b50565b60008135905061289981612873565b92915050565b6000602082840312156128b5576128b46126f2565b5b60006128c38482850161288a565b91505092915050565b600073ffffffffffffffffffffffffffffffffffffffff82169050919050565b60006128f7826128cc565b9050919050565b612907816128ec565b82525050565b600060208201905061292260008301846128fe565b92915050565b612931816128ec565b811461293c57600080fd5b50565b60008135905061294e81612928565b92915050565b6000806040838503121561296b5761296a6126f2565b5b60006129798582860161293f565b925050602061298a8582860161288a565b9150509250929050565b6000806000606084860312156129ad576129ac6126f2565b5b60006129bb8682870161293f565b93505060206129cc8682870161293f565b92505060406129dd8682870161288a565b9150509250925092565b600080fd5b600080fd5b7f4e487b7100000000000000000000000000000000000000000000000000000000600052604160045260246000fd5b612a29826127fd565b810181811067ffffffffffffffff82111715612a4857612a476129f1565b5b80604052505050565b6000612a5b6126e8565b9050612a678282612a20565b919050565b600067ffffffffffffffff821115612a8757612a866129f1565b5b612a90826127fd565b9050602081019050919050565b82818337600083830152505050565b6000612abf612aba84612a6c565b612a51565b905082815260208101848484011115612adb57612ada6129ec565b5b612ae6848285612a9d565b509392505050565b600082601f830112612b0357612b026129e7565b5b8135612b13848260208601612aac565b91505092915050565b60008060408385031215612b3357612b326126f2565b5b600083013567ffffffffffffffff811115612b5157612b506126f7565b5b612b5d85828601612aee565b9250506020612b6e8582860161288a565b9150509250929050565b600081519050919050565b600082825260208201905092915050565b6000819050602082019050919050565b600082825260208201905092915050565b6000612bc0826127b7565b612bca8185612ba4565b9350612bda8185602086016127d3565b612be3816127fd565b840191505092915050565b612bf781612869565b82525050565b60006060830160008301518482036000860152612c1a8282612bb5565b9150506020830151612c2f6020860182612bee565b506040830151612c426040860182612bee565b508091505092915050565b6000612c598383612bfd565b905092915050565b6000602082019050919050565b6000612c7982612b78565b612c838185612b83565b935083602082028501612c9585612b94565b8060005b85811015612cd15784840389528151612cb28582612c4d565b9450612cbd83612c61565b925060208a01995050600181019050612c99565b50829750879550505050505092915050565b60006020820190508181036000830152612cfd8184612c6e565b905092915050565b600060208284031215612d1b57612d1a6126f2565b5b6000612d298482850161293f565b91505092915050565b612d3b81612869565b82525050565b6000602082019050612d566000830184612d32565b92915050565b60006060820190508181036000830152612d76818661280e565b9050612d856020830185612d32565b612d926040830184612d32565b949350505050565b612da381612781565b8114612dae57600080fd5b50565b600081359050612dc081612d9a565b92915050565b60008060408385031215612ddd57612ddc6126f2565b5b6000612deb8582860161293f565b9250506020612dfc85828601612db1565b9150509250929050565b600060208284031215612e1c57612e1b6126f2565b5b600082013567ffffffffffffffff811115612e3a57612e396126f7565b5b612e4684828501612aee565b91505092915050565b600067ffffffffffffffff821115612e6a57612e696129f1565b5b612e73826127fd565b9050602081019050919050565b6000612e93612e8e84612e4f565b612a51565b905082815260208101848484011115612eaf57612eae6129ec565b5b612eba848285612a9d565b509392505050565b600082601f830112612ed757612ed66129e7565b5b8135612ee7848260208601612e80565b91505092915050565b60008060008060808587031215612f0a57612f096126f2565b5b6000612f188782880161293f565b9450506020612f298782880161293f565b9350506040612f3a8782880161288a565b925050606085013567ffffffffffffffff811115612f5b57612f5a6126f7565b5b612f6787828801612ec2565b91505092959194509250565b60008060408385031215612f8a57612f896126f2565b5b6000612f988582860161293f565b9250506020612fa98582860161293f565b9150509250929050565b7f4e487b7100000000000000000000000000000000000000000000000000000000600052602260045260246000fd5b60006002820490506001821680612ffa57607f821691505b60208210810361300d5761300c612fb3565b5b50919050565b7f4552433732313a20617070726f76616c20746f2063757272656e74206f776e6560008201527f7200000000000000000000000000000000000000000000000000000000000000602082015250565b600061306f6021836127c2565b915061307a82613013565b604082019050919050565b6000602082019050818103600083015261309e81613062565b9050919050565b7f4552433732313a20617070726f76652063616c6c6572206973206e6f7420746f60008201527f6b656e206f776e6572206f7220617070726f76656420666f7220616c6c000000602082015250565b6000613101603d836127c2565b915061310c826130a5565b604082019050919050565b60006020820190508181036000830152613130816130f4565b9050919050565b7f4552433732313a2063616c6c6572206973206e6f7420746f6b656e206f776e6560008201527f72206f7220617070726f76656400000000000000000000000000000000000000602082015250565b6000613193602d836127c2565b915061319e82613137565b604082019050919050565b600060208201905081810360008301526131c281613186565b9050919050565b7f54686520616d6f756e74206973206e6f7420636f727265637421000000000000600082015250565b60006131ff601a836127c2565b915061320a826131c9565b602082019050919050565b6000602082019050818103600083015261322e816131f2565b9050919050565b7f4552433732313a20696e76616c696420746f6b656e2049440000000000000000600082015250565b600061326b6018836127c2565b915061327682613235565b602082019050919050565b6000602082019050818103600083015261329a8161325e565b9050919050565b7f4552433732313a2061646472657373207a65726f206973206e6f74206120766160008201527f6c6964206f776e65720000000000000000000000000000000000000000000000602082015250565b60006132fd6029836127c2565b9150613308826132a1565b604082019050919050565b6000602082019050818103600083015261332c816132f0565b9050919050565b600081905092915050565b7f6261736535000000000000000000000000000000000000000000000000000000600082015250565b6000613374600583613333565b915061337f8261333e565b600582019050919050565b600061339582613367565b9150819050919050565b60006133aa826127b7565b6133b48185613333565b93506133c48185602086016127d3565b80840191505092915050565b60006133dc828461339f565b915081905092915050565b7f70676f0000000000000000000000000000000000000000000000000000000000600082015250565b600061341d600383613333565b9150613428826133e7565b600382019050919050565b600061343e82613410565b9150819050919050565b7f6470310000000000000000000000000000000000000000000000000000000000600082015250565b600061347e600383613333565b915061348982613448565b600382019050919050565b600061349f82613471565b9150819050919050565b7f4e487b7100000000000000000000000000000000000000000000000000000000600052601160045260246000fd5b60006134e382612869565b91506134ee83612869565b9250828203905081811115613506576135056134a9565b5b92915050565b7f2d00000000000000000000000000000000000000000000000000000000000000815250565b600061353e828461339f565b91506135498261350c565b60018201915081905092915050565b6000613564828561339f565b9150613570828461339f565b91508190509392505050565b7f4e487b7100000000000000000000000000000000000000000000000000000000600052603260045260246000fd5b60006135b682612869565b91507fffffffffffffffffffffffffffffffffffffffffffffffffffffffffffffffff82036135e8576135e76134a9565b5b600182019050919050565b60008190508160005260206000209050919050565b6000815461361581612fe2565b61361f8186613333565b9450600182166000811461363a576001811461364f57613682565b60ff1983168652811515820286019350613682565b613658856135f3565b60005b8381101561367a5781548189015260018201915060208101905061365b565b838801955050505b50505092915050565b60006136978284613608565b915081905092915050565b7f4f776e61626c653a206e6577206f776e657220697320746865207a65726f206160008201527f6464726573730000000000000000000000000000000000000000000000000000602082015250565b60006136fe6026836127c2565b9150613709826136a2565b604082019050919050565b6000602082019050818103600083015261372d816136f1565b9050919050565b6000819050919050565b61374f61374a82612869565b613734565b82525050565b60008160601b9050919050565b600061376d82613755565b9050919050565b600061377f82613762565b9050919050565b613797613792826128ec565b613774565b82525050565b60006137a9828561373e565b6020820191506137b98284613786565b6014820191508190509392505050565b7f4e487b7100000000000000000000000000000000000000000000000000000000600052601260045260246000fd5b600061380382612869565b915061380e83612869565b92508261381e5761381d6137c9565b5b828206905092915050565b60006020601f8301049050919050565b600082821b905092915050565b6000600883026138767fffffffffffffffffffffffffffffffffffffffffffffffffffffffffffffffff82613839565b6138808683613839565b95508019841693508086168417925050509392505050565b6000819050919050565b60006138bd6138b86138b384612869565b613898565b612869565b9050919050565b6000819050919050565b6138d7836138a2565b6138eb6138e3826138c4565b848454613846565b825550505050565b600090565b6139006138f3565b61390b8184846138ce565b505050565b5b8181101561392f576139246000826138f8565b600181019050613911565b5050565b601f82111561397457613945816135f3565b61394e84613829565b8101602085101561395d578190505b61397161396985613829565b830182613910565b50505b505050565b600082821c905092915050565b600061399760001984600802613979565b1980831691505092915050565b60006139b08383613986565b9150826002028217905092915050565b6139c9826127b7565b67ffffffffffffffff8111156139e2576139e16129f1565b5b6139ec8254612fe2565b6139f7828285613933565b600060209050601f831160018114613a2a5760008415613a18578287015190505b613a2285826139a4565b865550613a8a565b601f198416613a38866135f3565b60005b82811015613a6057848901518255600182019150602085019450602081019050613a3b565b86831015613a7d5784890151613a79601f891682613986565b8355505b6001600288020188555050505b505050505050565b6000604082019050613aa76000830185612d32565b8181036020830152613ab9818461280e565b90509392505050565b7f4552433732313a207472616e736665722066726f6d20696e636f72726563742060008201527f6f776e6572000000000000000000000000000000000000000000000000000000602082015250565b6000613b1e6025836127c2565b9150613b2982613ac2565b604082019050919050565b60006020820190508181036000830152613b4d81613b11565b9050919050565b7f4552433732313a207472616e7366657220746f20746865207a65726f2061646460008201527f7265737300000000000000000000000000000000000000000000000000000000602082015250565b6000613bb06024836127c2565b9150613bbb82613b54565b604082019050919050565b60006020820190508181036000830152613bdf81613ba3565b9050919050565b7f4f776e61626c653a2063616c6c6572206973206e6f7420746865206f776e6572600082015250565b6000613c1c6020836127c2565b9150613c2782613be6565b602082019050919050565b60006020820190508181036000830152613c4b81613c0f565b9050919050565b7f4552433732313a20617070726f766520746f2063616c6c657200000000000000600082015250565b6000613c886019836127c2565b9150613c9382613c52565b602082019050919050565b60006020820190508181036000830152613cb781613c7b565b9050919050565b7f4552433732313a207472616e7366657220746f206e6f6e20455243373231526560008201527f63656976657220696d706c656d656e7465720000000000000000000000000000602082015250565b6000613d1a6032836127c2565b9150613d2582613cbe565b604082019050919050565b60006020820190508181036000830152613d4981613d0d565b9050919050565b600081519050919050565b600082825260208201905092915050565b6000613d7782613d50565b613d818185613d5b565b9350613d918185602086016127d3565b613d9a816127fd565b840191505092915050565b6000608082019050613dba60008301876128fe565b613dc760208301866128fe565b613dd46040830185612d32565b8181036060830152613de68184613d6c565b905095945050505050565b600081519050613e0081612728565b92915050565b600060208284031215613e1c57613e1b6126f2565b5b6000613e2a84828501613df1565b91505092915050565b7f4552433732313a206d696e7420746f20746865207a65726f2061646472657373600082015250565b6000613e696020836127c2565b9150613e7482613e33565b602082019050919050565b60006020820190508181036000830152613e9881613e5c565b9050919050565b7f4552433732313a20746f6b656e20616c7265616479206d696e74656400000000600082015250565b6000613ed5601c836127c2565b9150613ee082613e9f565b602082019050919050565b60006020820190508181036000830152613f0481613ec8565b905091905056fea2646970667358221220102f8f84ab46fdd409fb517fcd1cd9769b4e2349e5d2cbbbd106dfd08ea486c564736f6c63430008130033",
  "linkReferences": {},
  "deployedLinkReferences": {}
}