{
  "_format": "hh-sol-artifact-1",
  "contractName": "CardToken",
  "sourceName": "contracts/CardToken.sol",
  "abi": [
    {
      "inputs": [],
      "stateMutability": "nonpayable",
      "type": "constructor"
    },
    {
      "anonymous": false,
      "inputs": [
        {
          "indexed": true,
          "internalType": "address",
          "name": "owner",
          "type": "address"
        },
        {
          "indexed": true,
          "internalType": "address",
          "name": "approved",
          "type": "address"
        },
        {
          "indexed": true,
          "internalType": "uint256",
          "name": "tokenId",
          "type": "uint256"
        }
      ],
      "name": "Approval",
      "type": "event"
    },
    {
      "anonymous": false,
      "inputs": [
        {
          "indexed": true,
          "internalType": "address",
          "name": "owner",
          "type": "address"
        },
        {
          "indexed": true,
          "internalType": "address",
          "name": "operator",
          "type": "address"
        },
        {
          "indexed": false,
          "internalType": "bool",
          "name": "approved",
          "type": "bool"
        }
      ],
      "name": "ApprovalForAll",
      "type": "event"
    },
    {
      "anonymous": false,
      "inputs": [
        {
          "indexed": true,
          "internalType": "address",
          "name": "buyer",
          "type": "address"
        },
        {
          "indexed": true,
          "internalType": "address",
          "name": "seller",
          "type": "address"
        },
        {
          "indexed": false,
          "internalType": "uint256",
          "name": "cardIndex",
          "type": "uint256"
        },
        {
          "indexed": false,
          "internalType": "uint256",
          "name": "amount",
          "type": "uint256"
        }
      ],
      "name": "CardPurchased",
      "type": "event"
    },
    {
      "anonymous": false,
      "inputs": [
        {
          "indexed": true,
          "internalType": "address",
          "name": "owner",
          "type": "address"
        },
        {
          "indexed": false,
          "internalType": "uint256",
          "name": "id",
          "type": "uint256"
        },
        {
          "indexed": false,
          "internalType": "string",
          "name": "name",
          "type": "string"
        }
      ],
      "name": "NewCard",
      "type": "event"
    },
    {
      "anonymous": false,
      "inputs": [
        {
          "indexed": true,
          "internalType": "address",
          "name": "previousOwner",
          "type": "address"
        },
        {
          "indexed": true,
          "internalType": "address",
          "name": "newOwner",
          "type": "address"
        }
      ],
      "name": "OwnershipTransferred",
      "type": "event"
    },
    {
      "anonymous": false,
      "inputs": [
        {
          "indexed": true,
          "internalType": "address",
          "name": "from",
          "type": "address"
        },
        {
          "indexed": true,
          "internalType": "address",
          "name": "to",
          "type": "address"
        },
        {
          "indexed": true,
          "internalType": "uint256",
          "name": "tokenId",
          "type": "uint256"
        }
      ],
      "name": "Transfer",
      "type": "event"
    },
    {
      "inputs": [
        {
          "internalType": "uint256",
          "name": "_counter",
          "type": "uint256"
        },
        {
          "internalType": "address",
          "name": "_buyer",
          "type": "address"
        }
      ],
      "name": "acceptSale",
      "outputs": [],
      "stateMutability": "payable",
      "type": "function"
    },
    {
      "inputs": [
        {
          "internalType": "address",
          "name": "to",
          "type": "address"
        },
        {
          "internalType": "uint256",
          "name": "tokenId",
          "type": "uint256"
        }
      ],
      "name": "approve",
      "outputs": [],
      "stateMutability": "nonpayable",
      "type": "function"
    },
    {
      "inputs": [
        {
          "internalType": "address",
          "name": "owner",
          "type": "address"
        }
      ],
      "name": "balanceOf",
      "outputs": [
        {
          "internalType": "uint256",
          "name": "",
          "type": "uint256"
        }
      ],
      "stateMutability": "view",
      "type": "function"
    },
    {
      "inputs": [
        {
          "internalType": "uint256",
          "name": "",
          "type": "uint256"
        }
      ],
      "name": "cards",
      "outputs": [
        {
          "internalType": "string",
          "name": "name",
          "type": "string"
        },
        {
          "internalType": "uint256",
          "name": "id",
          "type": "uint256"
        },
        {
          "internalType": "uint256",
          "name": "cardNum",
          "type": "uint256"
        },
        {
          "internalType": "uint256",
          "name": "amount",
          "type": "uint256"
        },
        {
          "internalType": "string",
          "name": "url",
          "type": "string"
        }
      ],
      "stateMutability": "view",
      "type": "function"
    },
    {
      "inputs": [
        {
          "internalType": "uint256",
          "name": "tokenId",
          "type": "uint256"
        }
      ],
      "name": "getApproved",
      "outputs": [
        {
          "internalType": "address",
          "name": "",
          "type": "address"
        }
      ],
      "stateMutability": "view",
      "type": "function"
    },
    {
      "inputs": [],
      "name": "getCardTokens",
      "outputs": [
        {
          "components": [
            {
              "internalType": "string",
              "name": "name",
              "type": "string"
            },
            {
              "internalType": "uint256",
              "name": "id",
              "type": "uint256"
            },
            {
              "internalType": "uint256",
              "name": "cardNum",
              "type": "uint256"
            },
            {
              "internalType": "uint256",
              "name": "amount",
              "type": "uint256"
            },
            {
              "internalType": "string",
              "name": "url",
              "type": "string"
            }
          ],
          "internalType": "struct CardToken.Card[]",
          "name": "",
          "type": "tuple[]"
        }
      ],
      "stateMutability": "view",
      "type": "function"
    },
    {
      "inputs": [],
      "name": "getCardsOnSale",
      "outputs": [
        {
          "components": [
            {
              "internalType": "string",
              "name": "name",
              "type": "string"
            },
            {
              "internalType": "uint256",
              "name": "id",
              "type": "uint256"
            },
            {
              "internalType": "uint256",
              "name": "cardNum",
              "type": "uint256"
            },
            {
              "internalType": "uint256",
              "name": "amount",
              "type": "uint256"
            },
            {
              "internalType": "string",
              "name": "url",
              "type": "string"
            }
          ],
          "internalType": "struct CardToken.Card[]",
          "name": "",
          "type": "tuple[]"
        }
      ],
      "stateMutability": "view",
      "type": "function"
    },
    {
      "inputs": [
        {
          "internalType": "address",
          "name": "_owner",
          "type": "address"
        }
      ],
      "name": "getOwnerCards",
      "outputs": [
        {
          "components": [
            {
              "internalType": "string",
              "name": "name",
              "type": "string"
            },
            {
              "internalType": "uint256",
              "name": "id",
              "type": "uint256"
            },
            {
              "internalType": "uint256",
              "name": "cardNum",
              "type": "uint256"
            },
            {
              "internalType": "uint256",
              "name": "amount",
              "type": "uint256"
            },
            {
              "internalType": "string",
              "name": "url",
              "type": "string"
            }
          ],
          "internalType": "struct CardToken.Card[]",
          "name": "",
          "type": "tuple[]"
        }
      ],
      "stateMutability": "view",
      "type": "function"
    },
    {
      "inputs": [
        {
          "internalType": "address",
          "name": "owner",
          "type": "address"
        },
        {
          "internalType": "address",
          "name": "operator",
          "type": "address"
        }
      ],
      "name": "isApprovedForAll",
      "outputs": [
        {
          "internalType": "bool",
          "name": "",
          "type": "bool"
        }
      ],
      "stateMutability": "view",
      "type": "function"
    },
    {
      "inputs": [
        {
          "internalType": "string",
          "name": "_id",
          "type": "string"
        }
      ],
      "name": "isNameInCards",
      "outputs": [
        {
          "internalType": "bool",
          "name": "",
          "type": "bool"
        }
      ],
      "stateMutability": "view",
      "type": "function"
    },
    {
      "inputs": [
        {
          "internalType": "string",
          "name": "_name",
          "type": "string"
        },
        {
          "internalType": "uint256",
          "name": "_cardNum",
          "type": "uint256"
        }
      ],
      "name": "mintCard",
      "outputs": [],
      "stateMutability": "payable",
      "type": "function"
    },
    {
      "inputs": [],
      "name": "name",
      "outputs": [
        {
          "internalType": "string",
          "name": "",
          "type": "string"
        }
      ],
      "stateMutability": "view",
      "type": "function"
    },
    {
      "inputs": [
        {
          "internalType": "uint256",
          "name": "_counter",
          "type": "uint256"
        }
      ],
      "name": "noLongerSell",
      "outputs": [],
      "stateMutability": "nonpayable",
      "type": "function"
    },
    {
      "inputs": [
        {
          "internalType": "string",
          "name": "_collection",
          "type": "string"
        },
        {
          "internalType": "uint256",
          "name": "_size",
          "type": "uint256"
        }
      ],
      "name": "openBooster",
      "outputs": [],
      "stateMutability": "payable",
      "type": "function"
    },
    {
      "inputs": [],
      "name": "owner",
      "outputs": [
        {
          "internalType": "address",
          "name": "",
          "type": "address"
        }
      ],
      "stateMutability": "view",
      "type": "function"
    },
    {
      "inputs": [
        {
          "internalType": "uint256",
          "name": "tokenId",
          "type": "uint256"
        }
      ],
      "name": "ownerOf",
      "outputs": [
        {
          "internalType": "address",
          "name": "",
          "type": "address"
        }
      ],
      "stateMutability": "view",
      "type": "function"
    },
    {
      "inputs": [
        {
          "internalType": "string",
          "name": "_id",
          "type": "string"
        },
        {
          "internalType": "string",
          "name": "_images",
          "type": "string"
        },
        {
          "internalType": "uint256",
          "name": "_amount",
          "type": "uint256"
        }
      ],
      "name": "putCardOnSale",
      "outputs": [],
      "stateMutability": "nonpayable",
      "type": "function"
    },
    {
      "inputs": [],
      "name": "renounceOwnership",
      "outputs": [],
      "stateMutability": "nonpayable",
      "type": "function"
    },
    {
      "inputs": [
        {
          "internalType": "address",
          "name": "from",
          "type": "address"
        },
        {
          "internalType": "address",
          "name": "to",
          "type": "address"
        },
        {
          "internalType": "uint256",
          "name": "tokenId",
          "type": "uint256"
        }
      ],
      "name": "safeTransferFrom",
      "outputs": [],
      "stateMutability": "nonpayable",
      "type": "function"
    },
    {
      "inputs": [
        {
          "internalType": "address",
          "name": "from",
          "type": "address"
        },
        {
          "internalType": "address",
          "name": "to",
          "type": "address"
        },
        {
          "internalType": "uint256",
          "name": "tokenId",
          "type": "uint256"
        },
        {
          "internalType": "bytes",
          "name": "data",
          "type": "bytes"
        }
      ],
      "name": "safeTransferFrom",
      "outputs": [],
      "stateMutability": "nonpayable",
      "type": "function"
    },
    {
      "inputs": [
        {
          "internalType": "address",
          "name": "operator",
          "type": "address"
        },
        {
          "internalType": "bool",
          "name": "approved",
          "type": "bool"
        }
      ],
      "name": "setApprovalForAll",
      "outputs": [],
      "stateMutability": "nonpayable",
      "type": "function"
    },
    {
      "inputs": [
        {
          "internalType": "bytes4",
          "name": "interfaceId",
          "type": "bytes4"
        }
      ],
      "name": "supportsInterface",
      "outputs": [
        {
          "internalType": "bool",
          "name": "",
          "type": "bool"
        }
      ],
      "stateMutability": "view",
      "type": "function"
    },
    {
      "inputs": [],
      "name": "symbol",
      "outputs": [
        {
          "internalType": "string",
          "name": "",
          "type": "string"
        }
      ],
      "stateMutability": "view",
      "type": "function"
    },
    {
      "inputs": [
        {
          "internalType": "uint256",
          "name": "tokenId",
          "type": "uint256"
        }
      ],
      "name": "tokenURI",
      "outputs": [
        {
          "internalType": "string",
          "name": "",
          "type": "string"
        }
      ],
      "stateMutability": "view",
      "type": "function"
    },
    {
      "inputs": [
        {
          "internalType": "address",
          "name": "from",
          "type": "address"
        },
        {
          "internalType": "address",
          "name": "to",
          "type": "address"
        },
        {
          "internalType": "uint256",
          "name": "tokenId",
          "type": "uint256"
        }
      ],
      "name": "transferFrom",
      "outputs": [],
      "stateMutability": "nonpayable",
      "type": "function"
    },
    {
      "inputs": [
        {
          "internalType": "address",
          "name": "newOwner",
          "type": "address"
        }
      ],
      "name": "transferOwnership",
      "outputs": [],
      "stateMutability": "nonpayable",
      "type": "function"
    },
    {
      "inputs": [
        {
          "internalType": "uint256",
          "name": "_fee",
          "type": "uint256"
        }
      ],
      "name": "updateFee",
      "outputs": [],
      "stateMutability": "nonpayable",
      "type": "function"
    },
    {
      "inputs": [],
      "name": "withdraw",
      "outputs": [],
      "stateMutability": "payable",
      "type": "function"
    }
  ],
  "bytecode": "0x6080604052670de0b6b3a76400006009553480156200001d57600080fd5b506040518060400160405280600981526020017f43617264546f6b656e00000000000000000000000000000000000000000000008152506040518060400160405280600381526020017f43544b000000000000000000000000000000000000000000000000000000000081525081600090816200009b91906200041e565b508060019081620000ad91906200041e565b505050620000d0620000c4620000d660201b60201c565b620000de60201b60201c565b62000505565b600033905090565b6000600660009054906101000a900473ffffffffffffffffffffffffffffffffffffffff16905081600660006101000a81548173ffffffffffffffffffffffffffffffffffffffff021916908373ffffffffffffffffffffffffffffffffffffffff1602179055508173ffffffffffffffffffffffffffffffffffffffff168173ffffffffffffffffffffffffffffffffffffffff167f8be0079c531659141344cd1fd0a4f28419497f9722a3daafe3b4186f6b6457e060405160405180910390a35050565b600081519050919050565b7f4e487b7100000000000000000000000000000000000000000000000000000000600052604160045260246000fd5b7f4e487b7100000000000000000000000000000000000000000000000000000000600052602260045260246000fd5b600060028204905060018216806200022657607f821691505b6020821081036200023c576200023b620001de565b5b50919050565b60008190508160005260206000209050919050565b60006020601f8301049050919050565b600082821b905092915050565b600060088302620002a67fffffffffffffffffffffffffffffffffffffffffffffffffffffffffffffffff8262000267565b620002b2868362000267565b95508019841693508086168417925050509392505050565b6000819050919050565b6000819050919050565b6000620002ff620002f9620002f384620002ca565b620002d4565b620002ca565b9050919050565b6000819050919050565b6200031b83620002de565b620003336200032a8262000306565b84845462000274565b825550505050565b600090565b6200034a6200033b565b6200035781848462000310565b505050565b5b818110156200037f576200037360008262000340565b6001810190506200035d565b5050565b601f821115620003ce57620003988162000242565b620003a38462000257565b81016020851015620003b3578190505b620003cb620003c28562000257565b8301826200035c565b50505b505050565b600082821c905092915050565b6000620003f360001984600802620003d3565b1980831691505092915050565b60006200040e8383620003e0565b9150826002028217905092915050565b6200042982620001a4565b67ffffffffffffffff811115620004455762000444620001af565b5b6200045182546200020d565b6200045e82828562000383565b600060209050601f83116001811462000496576000841562000481578287015190505b6200048d858262000400565b865550620004fd565b601f198416620004a68662000242565b60005b82811015620004d057848901518255600182019150602085019450602081019050620004a9565b86831015620004f05784890151620004ec601f891682620003e0565b8355505b6001600288020188555050505b505050505050565b614a8480620005156000396000f3fe6080604052600436106101b75760003560e01c8063715018a6116100ec578063a22cb4651161008a578063bec77cb111610064578063bec77cb1146105c2578063c87b56dd146105ff578063e985e9c51461063c578063f2fde38b14610679576101b7565b8063a22cb46514610533578063b23be1331461055c578063b88d4fde14610599576101b7565b80638dc10768116100c65780638dc10768146104825780638e55332d146104c35780639012c4a8146104df57806395d89b4114610508576101b7565b8063715018a614610417578063752a6af71461042e5780638da5cb5b14610457576101b7565b80633ccfd60b116101595780635e55b092116101335780635e55b092146103495780636352211e14610374578063683a7392146103b157806370a08231146103da576101b7565b80633ccfd60b146102fa57806342842e0e1461030457806345e29b811461032d576101b7565b8063095ea7b311610195578063095ea7b31461026157806323b872dd1461028a578063306b0fcc146102b3578063383def3f146102cf576101b7565b806301ffc9a7146101bc57806306fdde03146101f9578063081812fc14610224575b600080fd5b3480156101c857600080fd5b506101e360048036038101906101de9190613098565b6106a2565b6040516101f091906130e0565b60405180910390f35b34801561020557600080fd5b5061020e610784565b60405161021b919061318b565b60405180910390f35b34801561023057600080fd5b5061024b600480360381019061024691906131e3565b610816565b6040516102589190613251565b60405180910390f35b34801561026d57600080fd5b5061028860048036038101906102839190613298565b61085c565b005b34801561029657600080fd5b506102b160048036038101906102ac91906132d8565b610973565b005b6102cd60048036038101906102c89190613460565b6109d3565b005b3480156102db57600080fd5b506102e4610a26565b6040516102f19190613654565b60405180910390f35b610302610bc7565b005b34801561031057600080fd5b5061032b600480360381019061032691906132d8565b610c25565b005b61034760048036038101906103429190613676565b610c45565b005b34801561035557600080fd5b5061035e610e79565b60405161036b9190613654565b60405180910390f35b34801561038057600080fd5b5061039b600480360381019061039691906131e3565b6110cc565b6040516103a89190613251565b60405180910390f35b3480156103bd57600080fd5b506103d860048036038101906103d391906136b6565b611152565b005b3480156103e657600080fd5b5061040160048036038101906103fc9190613741565b6112a4565b60405161040e919061377d565b60405180910390f35b34801561042357600080fd5b5061042c61135b565b005b34801561043a57600080fd5b50610455600480360381019061045091906131e3565b61136f565b005b34801561046357600080fd5b5061046c6113b5565b6040516104799190613251565b60405180910390f35b34801561048e57600080fd5b506104a960048036038101906104a491906131e3565b6113df565b6040516104ba959493929190613798565b60405180910390f35b6104dd60048036038101906104d89190613460565b611535565b005b3480156104eb57600080fd5b50610506600480360381019061050191906131e3565b6119bf565b005b34801561051457600080fd5b5061051d6119d1565b60405161052a919061318b565b60405180910390f35b34801561053f57600080fd5b5061055a60048036038101906105559190613825565b611a63565b005b34801561056857600080fd5b50610583600480360381019061057e9190613865565b611a79565b60405161059091906130e0565b60405180910390f35b3480156105a557600080fd5b506105c060048036038101906105bb919061394f565b611b2d565b005b3480156105ce57600080fd5b506105e960048036038101906105e49190613741565b611b8f565b6040516105f69190613654565b60405180910390f35b34801561060b57600080fd5b50610626600480360381019061062191906131e3565b611df7565b604051610633919061318b565b60405180910390f35b34801561064857600080fd5b50610663600480360381019061065e91906139d2565b611e5f565b60405161067091906130e0565b60405180910390f35b34801561068557600080fd5b506106a0600480360381019061069b9190613741565b611ef3565b005b60007f80ac58cd000000000000000000000000000000000000000000000000000000007bffffffffffffffffffffffffffffffffffffffffffffffffffffffff1916827bffffffffffffffffffffffffffffffffffffffffffffffffffffffff1916148061076d57507f5b5e139f000000000000000000000000000000000000000000000000000000007bffffffffffffffffffffffffffffffffffffffffffffffffffffffff1916827bffffffffffffffffffffffffffffffffffffffffffffffffffffffff1916145b8061077d575061077c82611f76565b5b9050919050565b60606000805461079390613a41565b80601f01602080910402602001604051908101604052809291908181526020018280546107bf90613a41565b801561080c5780601f106107e15761010080835404028352916020019161080c565b820191906000526020600020905b8154815290600101906020018083116107ef57829003601f168201915b5050505050905090565b600061082182611fe0565b6004600083815260200190815260200160002060009054906101000a900473ffffffffffffffffffffffffffffffffffffffff169050919050565b6000610867826110cc565b90508073ffffffffffffffffffffffffffffffffffffffff168373ffffffffffffffffffffffffffffffffffffffff16036108d7576040517f08c379a00000000000000000000000000000000000000000000000000000000081526004016108ce90613ae4565b60405180910390fd5b8073ffffffffffffffffffffffffffffffffffffffff166108f661202b565b73ffffffffffffffffffffffffffffffffffffffff16148061092557506109248161091f61202b565b611e5f565b5b610964576040517f08c379a000000000000000000000000000000000000000000000000000000000815260040161095b90613b76565b60405180910390fd5b61096e8383612033565b505050565b61098461097e61202b565b826120ec565b6109c3576040517f08c379a00000000000000000000000000000000000000000000000000000000081526004016109ba90613c08565b60405180910390fd5b6109ce838383612181565b505050565b600954341015610a18576040517f08c379a0000000000000000000000000000000000000000000000000000000008152600401610a0f90613c74565b60405180910390fd5b610a22828261247a565b5050565b6060600a805480602002602001604051908101604052809291908181526020016000905b82821015610bbe57838290600052602060002090600502016040518060a0016040529081600082018054610a7d90613a41565b80601f0160208091040260200160405190810160405280929190818152602001828054610aa990613a41565b8015610af65780601f10610acb57610100808354040283529160200191610af6565b820191906000526020600020905b815481529060010190602001808311610ad957829003601f168201915b50505050508152602001600182015481526020016002820154815260200160038201548152602001600482018054610b2d90613a41565b80601f0160208091040260200160405190810160405280929190818152602001828054610b5990613a41565b8015610ba65780601f10610b7b57610100808354040283529160200191610ba6565b820191906000526020600020905b815481529060010190602001808311610b8957829003601f168201915b50505050508152505081526020019060010190610a4a565b50505050905090565b610bcf6125aa565b6000610bd96113b5565b90508073ffffffffffffffffffffffffffffffffffffffff166108fc479081150290604051600060405180830381858888f19350505050158015610c21573d6000803e3d6000fd5b5050565b610c4083838360405180602001604052806000815250611b2d565b505050565b6000610c75600a8481548110610c5e57610c5d613c94565b5b9060005260206000209060050201600101546110cc565b90503373ffffffffffffffffffffffffffffffffffffffff168173ffffffffffffffffffffffffffffffffffffffff1603610ce5576040517f08c379a0000000000000000000000000000000000000000000000000000000008152600401610cdc90613d35565b60405180910390fd5b600a8381548110610cf957610cf8613c94565b5b906000526020600020906005020160030154341015610d4d576040517f08c379a0000000000000000000000000000000000000000000000000000000008152600401610d4490613c74565b60405180910390fd5b6000600a8481548110610d6357610d62613c94565b5b90600052602060002090600502016003015490508173ffffffffffffffffffffffffffffffffffffffff166108fc349081150290604051600060405180830381858888f19350505050158015610dbd573d6000803e3d6000fd5b506000600a8581548110610dd457610dd3613c94565b5b906000526020600020906005020160030181905550610df4823386612181565b60086000815480929190610e0790613d84565b91905055508173ffffffffffffffffffffffffffffffffffffffff168373ffffffffffffffffffffffffffffffffffffffff167f3751d03c1a75a396add7de6af1fa0c7cbf6a63f9824dd9c4941b9da99f8f50d18684604051610e6b929190613dad565b60405180910390a350505050565b6060600060085467ffffffffffffffff811115610e9957610e98613335565b5b604051908082528060200260200182016040528015610ed257816020015b610ebf612ffd565b815260200190600190039081610eb75790505b5090506000805b600a805490508110156110c3576000600a8281548110610efc57610efb613c94565b5b90600052602060002090600502016003015411156110b057600a8181548110610f2857610f27613c94565b5b90600052602060002090600502016040518060a0016040529081600082018054610f5190613a41565b80601f0160208091040260200160405190810160405280929190818152602001828054610f7d90613a41565b8015610fca5780601f10610f9f57610100808354040283529160200191610fca565b820191906000526020600020905b815481529060010190602001808311610fad57829003601f168201915b5050505050815260200160018201548152602001600282015481526020016003820154815260200160048201805461100190613a41565b80601f016020809104026020016040519081016040528092919081815260200182805461102d90613a41565b801561107a5780601f1061104f5761010080835404028352916020019161107a565b820191906000526020600020905b81548152906001019060200180831161105d57829003601f168201915b50505050508152505083838151811061109657611095613c94565b5b602002602001018190525081806110ac90613dd6565b9250505b80806110bb90613dd6565b915050610ed9565b50819250505090565b6000806110d883612628565b9050600073ffffffffffffffffffffffffffffffffffffffff168173ffffffffffffffffffffffffffffffffffffffff1603611149576040517f08c379a000000000000000000000000000000000000000000000000000000000815260040161114090613e6a565b60405180910390fd5b80915050919050565b60005b600a8054905081101561129e57836040516020016111739190613ec6565b60405160208183030381529060405280519060200120600a828154811061119d5761119c613c94565b5b90600052602060002090600502016000016040516020016111be9190613f75565b604051602081830303815290604052805190602001200361128b573373ffffffffffffffffffffffffffffffffffffffff166111f982612628565b73ffffffffffffffffffffffffffffffffffffffff160361128a5781600a828154811061122957611228613c94565b5b90600052602060002090600502016003018190555082600a828154811061125357611252613c94565b5b906000526020600020906005020160040190816112709190614123565b506008600081548092919061128490613dd6565b91905055505b5b808061129690613dd6565b915050611155565b50505050565b60008073ffffffffffffffffffffffffffffffffffffffff168273ffffffffffffffffffffffffffffffffffffffff1603611314576040517f08c379a000000000000000000000000000000000000000000000000000000000815260040161130b90614267565b60405180910390fd5b600360008373ffffffffffffffffffffffffffffffffffffffff1673ffffffffffffffffffffffffffffffffffffffff168152602001908152602001600020549050919050565b6113636125aa565b61136d6000612665565b565b6000600a828154811061138557611384613c94565b5b906000526020600020906005020160030181905550600860008154809291906113ad90613d84565b919050555050565b6000600660009054906101000a900473ffffffffffffffffffffffffffffffffffffffff16905090565b600a81815481106113ef57600080fd5b906000526020600020906005020160009150905080600001805461141290613a41565b80601f016020809104026020016040519081016040528092919081815260200182805461143e90613a41565b801561148b5780601f106114605761010080835404028352916020019161148b565b820191906000526020600020905b81548152906001019060200180831161146e57829003601f168201915b5050505050908060010154908060020154908060030154908060040180546114b290613a41565b80601f01602080910402602001604051908101604052809291908181526020018280546114de90613a41565b801561152b5780601f106115005761010080835404028352916020019161152b565b820191906000526020600020905b81548152906001019060200180831161150e57829003601f168201915b5050505050905085565b6000600467ffffffffffffffff81111561155257611551613335565b5b60405190808252806020026020018201604052801561158b57816020015b611578612ffd565b8152602001906001900390816115705790505b509050600060405160200161159f906142d3565b60405160208183030381529060405280519060200120846040516020016115c69190613ec6565b60405160208183030381529060405280519060200120036115f157674563918244f4000090506116c3565b60405160200161160090614334565b60405160208183030381529060405280519060200120846040516020016116279190613ec6565b604051602081830303815290604052805190602001200361165257678ac7230489e8000090506116c2565b60405160200161166190614395565b60405160208183030381529060405280519060200120846040516020016116889190613ec6565b60405160208183030381529060405280519060200120036116b45768015af1d78b58c4000090506116c1565b6802b5e3af16b188000090505b5b5b80341015611706576040517f08c379a00000000000000000000000000000000000000000000000000000000081526004016116fd90613c74565b60405180910390fd5b60005b60038110156119b8576000611728828661172391906143aa565b61272b565b9050600061173582612770565b905060008760405160200161174a9190614404565b60405160208183030381529060405290506000818360405160200161177092919061442a565b60405160208183030381529060405290505b61178b81611a79565b156117fc576117a4858961179f91906143aa565b61272b565b93506117af84612770565b9250886040516020016117c29190614404565b604051602081830303815290604052915081836040516020016117e692919061442a565b6040516020818303038152906040529050611782565b611806818561247a565b600a600160075461181791906143aa565b8154811061182857611827613c94565b5b90600052602060002090600502016040518060a001604052908160008201805461185190613a41565b80601f016020809104026020016040519081016040528092919081815260200182805461187d90613a41565b80156118ca5780601f1061189f576101008083540402835291602001916118ca565b820191906000526020600020905b8154815290600101906020018083116118ad57829003601f168201915b5050505050815260200160018201548152602001600282015481526020016003820154815260200160048201805461190190613a41565b80601f016020809104026020016040519081016040528092919081815260200182805461192d90613a41565b801561197a5780601f1061194f5761010080835404028352916020019161197a565b820191906000526020600020905b81548152906001019060200180831161195d57829003601f168201915b50505050508152505087868151811061199657611995613c94565b5b60200260200101819052505050505080806119b090613dd6565b915050611709565b5050505050565b6119c76125aa565b8060098190555050565b6060600180546119e090613a41565b80601f0160208091040260200160405190810160405280929190818152602001828054611a0c90613a41565b8015611a595780601f10611a2e57610100808354040283529160200191611a59565b820191906000526020600020905b815481529060010190602001808311611a3c57829003601f168201915b5050505050905090565b611a75611a6e61202b565b838361283e565b5050565b600080600090505b600a80549050811015611b225782604051602001611a9f9190613ec6565b60405160208183030381529060405280519060200120600a8281548110611ac957611ac8613c94565b5b9060005260206000209060050201600001604051602001611aea9190613f75565b6040516020818303038152906040528051906020012003611b0f576001915050611b28565b8080611b1a90613dd6565b915050611a81565b50600090505b919050565b611b3e611b3861202b565b836120ec565b611b7d576040517f08c379a0000000000000000000000000000000000000000000000000000000008152600401611b7490613c08565b60405180910390fd5b611b89848484846129aa565b50505050565b60606000611b9c836112a4565b67ffffffffffffffff811115611bb557611bb4613335565b5b604051908082528060200260200182016040528015611bee57816020015b611bdb612ffd565b815260200190600190039081611bd35790505b5090506000805b600a80549050811015611dec578473ffffffffffffffffffffffffffffffffffffffff16611c22826110cc565b73ffffffffffffffffffffffffffffffffffffffff1603611dd957600a8181548110611c5157611c50613c94565b5b90600052602060002090600502016040518060a0016040529081600082018054611c7a90613a41565b80601f0160208091040260200160405190810160405280929190818152602001828054611ca690613a41565b8015611cf35780601f10611cc857610100808354040283529160200191611cf3565b820191906000526020600020905b815481529060010190602001808311611cd657829003601f168201915b50505050508152602001600182015481526020016002820154815260200160038201548152602001600482018054611d2a90613a41565b80601f0160208091040260200160405190810160405280929190818152602001828054611d5690613a41565b8015611da35780601f10611d7857610100808354040283529160200191611da3565b820191906000526020600020905b815481529060010190602001808311611d8657829003601f168201915b505050505081525050838381518110611dbf57611dbe613c94565b5b60200260200101819052508180611dd590613dd6565b9250505b8080611de490613dd6565b915050611bf5565b508192505050919050565b6060611e0282611fe0565b6000611e0c612a06565b90506000815111611e2c5760405180602001604052806000815250611e57565b80611e3684612770565b604051602001611e4792919061442a565b6040516020818303038152906040525b915050919050565b6000600560008473ffffffffffffffffffffffffffffffffffffffff1673ffffffffffffffffffffffffffffffffffffffff16815260200190815260200160002060008373ffffffffffffffffffffffffffffffffffffffff1673ffffffffffffffffffffffffffffffffffffffff16815260200190815260200160002060009054906101000a900460ff16905092915050565b611efb6125aa565b600073ffffffffffffffffffffffffffffffffffffffff168173ffffffffffffffffffffffffffffffffffffffff1603611f6a576040517f08c379a0000000000000000000000000000000000000000000000000000000008152600401611f61906144c0565b60405180910390fd5b611f7381612665565b50565b60007f01ffc9a7000000000000000000000000000000000000000000000000000000007bffffffffffffffffffffffffffffffffffffffffffffffffffffffff1916827bffffffffffffffffffffffffffffffffffffffffffffffffffffffff1916149050919050565b611fe981612a1d565b612028576040517f08c379a000000000000000000000000000000000000000000000000000000000815260040161201f90613e6a565b60405180910390fd5b50565b600033905090565b816004600083815260200190815260200160002060006101000a81548173ffffffffffffffffffffffffffffffffffffffff021916908373ffffffffffffffffffffffffffffffffffffffff160217905550808273ffffffffffffffffffffffffffffffffffffffff166120a6836110cc565b73ffffffffffffffffffffffffffffffffffffffff167f8c5be1e5ebec7d5bd14f71427d1e84f3dd0314c0f7b2291e5b200ac8c7c3b92560405160405180910390a45050565b6000806120f8836110cc565b90508073ffffffffffffffffffffffffffffffffffffffff168473ffffffffffffffffffffffffffffffffffffffff16148061213a57506121398185611e5f565b5b8061217857508373ffffffffffffffffffffffffffffffffffffffff1661216084610816565b73ffffffffffffffffffffffffffffffffffffffff16145b91505092915050565b8273ffffffffffffffffffffffffffffffffffffffff166121a1826110cc565b73ffffffffffffffffffffffffffffffffffffffff16146121f7576040517f08c379a00000000000000000000000000000000000000000000000000000000081526004016121ee90614552565b60405180910390fd5b600073ffffffffffffffffffffffffffffffffffffffff168273ffffffffffffffffffffffffffffffffffffffff1603612266576040517f08c379a000000000000000000000000000000000000000000000000000000000815260040161225d906145e4565b60405180910390fd5b6122738383836001612a5e565b8273ffffffffffffffffffffffffffffffffffffffff16612293826110cc565b73ffffffffffffffffffffffffffffffffffffffff16146122e9576040517f08c379a00000000000000000000000000000000000000000000000000000000081526004016122e090614552565b60405180910390fd5b6004600082815260200190815260200160002060006101000a81549073ffffffffffffffffffffffffffffffffffffffff02191690556001600360008573ffffffffffffffffffffffffffffffffffffffff1673ffffffffffffffffffffffffffffffffffffffff168152602001908152602001600020600082825403925050819055506001600360008473ffffffffffffffffffffffffffffffffffffffff1673ffffffffffffffffffffffffffffffffffffffff16815260200190815260200160002060008282540192505081905550816002600083815260200190815260200160002060006101000a81548173ffffffffffffffffffffffffffffffffffffffff021916908373ffffffffffffffffffffffffffffffffffffffff160217905550808273ffffffffffffffffffffffffffffffffffffffff168473ffffffffffffffffffffffffffffffffffffffff167fddf252ad1be2c89b69c2b068fc378daa952ba7f163c4a11628f55a4df523b3ef60405160405180910390a46124758383836001612a64565b505050565b60006040518060a00160405280848152602001600754815260200183815260200160008152602001604051806020016040528060008152508152509050600a81908060018154018082558091505060019003906000526020600020906005020160009091909190915060008201518160000190816124f89190614123565b50602082015181600101556040820151816002015560608201518160030155608082015181600401908161252c9190614123565b50505061253b33600754612a6a565b3373ffffffffffffffffffffffffffffffffffffffff167fb3fa422253152603b2f147d59ed070dd9ed60ebee9f6ee5f07bd2be62df7df2860075485604051612585929190614604565b60405180910390a2600760008154809291906125a090613dd6565b9190505550505050565b6125b261202b565b73ffffffffffffffffffffffffffffffffffffffff166125d06113b5565b73ffffffffffffffffffffffffffffffffffffffff1614612626576040517f08c379a000000000000000000000000000000000000000000000000000000000815260040161261d90614680565b60405180910390fd5b565b60006002600083815260200190815260200160002060009054906101000a900473ffffffffffffffffffffffffffffffffffffffff169050919050565b6000600660009054906101000a900473ffffffffffffffffffffffffffffffffffffffff16905081600660006101000a81548173ffffffffffffffffffffffffffffffffffffffff021916908373ffffffffffffffffffffffffffffffffffffffff1602179055508173ffffffffffffffffffffffffffffffffffffffff168173ffffffffffffffffffffffffffffffffffffffff167f8be0079c531659141344cd1fd0a4f28419497f9722a3daafe3b4186f6b6457e060405160405180910390a35050565b6000804233604051602001612741929190614709565b6040516020818303038152906040528051906020012060001c905082816127689190614764565b915050919050565b60606000600161277f84612a88565b01905060008167ffffffffffffffff81111561279e5761279d613335565b5b6040519080825280601f01601f1916602001820160405280156127d05781602001600182028036833780820191505090505b509050600082602001820190505b600115612833578080600190039150507f3031323334353637383961626364656600000000000000000000000000000000600a86061a8153600a858161282757612826614735565b5b049450600085036127de575b819350505050919050565b8173ffffffffffffffffffffffffffffffffffffffff168373ffffffffffffffffffffffffffffffffffffffff16036128ac576040517f08c379a00000000000000000000000000000000000000000000000000000000081526004016128a3906147e1565b60405180910390fd5b80600560008573ffffffffffffffffffffffffffffffffffffffff1673ffffffffffffffffffffffffffffffffffffffff16815260200190815260200160002060008473ffffffffffffffffffffffffffffffffffffffff1673ffffffffffffffffffffffffffffffffffffffff16815260200190815260200160002060006101000a81548160ff0219169083151502179055508173ffffffffffffffffffffffffffffffffffffffff168373ffffffffffffffffffffffffffffffffffffffff167f17307eab39ab6107e8899845ad3d59bd9653f200f220920489ca2b5937696c318360405161299d91906130e0565b60405180910390a3505050565b6129b5848484612181565b6129c184848484612bdb565b612a00576040517f08c379a00000000000000000000000000000000000000000000000000000000081526004016129f790614873565b60405180910390fd5b50505050565b606060405180602001604052806000815250905090565b60008073ffffffffffffffffffffffffffffffffffffffff16612a3f83612628565b73ffffffffffffffffffffffffffffffffffffffff1614159050919050565b50505050565b50505050565b612a84828260405180602001604052806000815250612d62565b5050565b600080600090507a184f03e93ff9f4daa797ed6e38ed64bf6a1f0100000000000000008310612ae6577a184f03e93ff9f4daa797ed6e38ed64bf6a1f0100000000000000008381612adc57612adb614735565b5b0492506040810190505b6d04ee2d6d415b85acef81000000008310612b23576d04ee2d6d415b85acef81000000008381612b1957612b18614735565b5b0492506020810190505b662386f26fc100008310612b5257662386f26fc100008381612b4857612b47614735565b5b0492506010810190505b6305f5e1008310612b7b576305f5e1008381612b7157612b70614735565b5b0492506008810190505b6127108310612ba0576127108381612b9657612b95614735565b5b0492506004810190505b60648310612bc35760648381612bb957612bb8614735565b5b0492506002810190505b600a8310612bd2576001810190505b80915050919050565b6000612bfc8473ffffffffffffffffffffffffffffffffffffffff16612dbd565b15612d55578373ffffffffffffffffffffffffffffffffffffffff1663150b7a02612c2561202b565b8786866040518563ffffffff1660e01b8152600401612c4794939291906148e8565b6020604051808303816000875af1925050508015612c8357506040513d601f19601f82011682018060405250810190612c809190614949565b60015b612d05573d8060008114612cb3576040519150601f19603f3d011682016040523d82523d6000602084013e612cb8565b606091505b506000815103612cfd576040517f08c379a0000000000000000000000000000000000000000000000000000000008152600401612cf490614873565b60405180910390fd5b805181602001fd5b63150b7a0260e01b7bffffffffffffffffffffffffffffffffffffffffffffffffffffffff1916817bffffffffffffffffffffffffffffffffffffffffffffffffffffffff191614915050612d5a565b600190505b949350505050565b612d6c8383612de0565b612d796000848484612bdb565b612db8576040517f08c379a0000000000000000000000000000000000000000000000000000000008152600401612daf90614873565b60405180910390fd5b505050565b6000808273ffffffffffffffffffffffffffffffffffffffff163b119050919050565b600073ffffffffffffffffffffffffffffffffffffffff168273ffffffffffffffffffffffffffffffffffffffff1603612e4f576040517f08c379a0000000000000000000000000000000000000000000000000000000008152600401612e46906149c2565b60405180910390fd5b612e5881612a1d565b15612e98576040517f08c379a0000000000000000000000000000000000000000000000000000000008152600401612e8f90614a2e565b60405180910390fd5b612ea6600083836001612a5e565b612eaf81612a1d565b15612eef576040517f08c379a0000000000000000000000000000000000000000000000000000000008152600401612ee690614a2e565b60405180910390fd5b6001600360008473ffffffffffffffffffffffffffffffffffffffff1673ffffffffffffffffffffffffffffffffffffffff16815260200190815260200160002060008282540192505081905550816002600083815260200190815260200160002060006101000a81548173ffffffffffffffffffffffffffffffffffffffff021916908373ffffffffffffffffffffffffffffffffffffffff160217905550808273ffffffffffffffffffffffffffffffffffffffff16600073ffffffffffffffffffffffffffffffffffffffff167fddf252ad1be2c89b69c2b068fc378daa952ba7f163c4a11628f55a4df523b3ef60405160405180910390a4612ff9600083836001612a64565b5050565b6040518060a0016040528060608152602001600081526020016000815260200160008152602001606081525090565b6000604051905090565b600080fd5b600080fd5b60007fffffffff0000000000000000000000000000000000000000000000000000000082169050919050565b61307581613040565b811461308057600080fd5b50565b6000813590506130928161306c565b92915050565b6000602082840312156130ae576130ad613036565b5b60006130bc84828501613083565b91505092915050565b60008115159050919050565b6130da816130c5565b82525050565b60006020820190506130f560008301846130d1565b92915050565b600081519050919050565b600082825260208201905092915050565b60005b8381101561313557808201518184015260208101905061311a565b60008484015250505050565b6000601f19601f8301169050919050565b600061315d826130fb565b6131678185613106565b9350613177818560208601613117565b61318081613141565b840191505092915050565b600060208201905081810360008301526131a58184613152565b905092915050565b6000819050919050565b6131c0816131ad565b81146131cb57600080fd5b50565b6000813590506131dd816131b7565b92915050565b6000602082840312156131f9576131f8613036565b5b6000613207848285016131ce565b91505092915050565b600073ffffffffffffffffffffffffffffffffffffffff82169050919050565b600061323b82613210565b9050919050565b61324b81613230565b82525050565b60006020820190506132666000830184613242565b92915050565b61327581613230565b811461328057600080fd5b50565b6000813590506132928161326c565b92915050565b600080604083850312156132af576132ae613036565b5b60006132bd85828601613283565b92505060206132ce858286016131ce565b9150509250929050565b6000806000606084860312156132f1576132f0613036565b5b60006132ff86828701613283565b935050602061331086828701613283565b9250506040613321868287016131ce565b9150509250925092565b600080fd5b600080fd5b7f4e487b7100000000000000000000000000000000000000000000000000000000600052604160045260246000fd5b61336d82613141565b810181811067ffffffffffffffff8211171561338c5761338b613335565b5b80604052505050565b600061339f61302c565b90506133ab8282613364565b919050565b600067ffffffffffffffff8211156133cb576133ca613335565b5b6133d482613141565b9050602081019050919050565b82818337600083830152505050565b60006134036133fe846133b0565b613395565b90508281526020810184848401111561341f5761341e613330565b5b61342a8482856133e1565b509392505050565b600082601f8301126134475761344661332b565b5b81356134578482602086016133f0565b91505092915050565b6000806040838503121561347757613476613036565b5b600083013567ffffffffffffffff8111156134955761349461303b565b5b6134a185828601613432565b92505060206134b2858286016131ce565b9150509250929050565b600081519050919050565b600082825260208201905092915050565b6000819050602082019050919050565b600082825260208201905092915050565b6000613504826130fb565b61350e81856134e8565b935061351e818560208601613117565b61352781613141565b840191505092915050565b61353b816131ad565b82525050565b600060a083016000830151848203600086015261355e82826134f9565b91505060208301516135736020860182613532565b5060408301516135866040860182613532565b5060608301516135996060860182613532565b50608083015184820360808601526135b182826134f9565b9150508091505092915050565b60006135ca8383613541565b905092915050565b6000602082019050919050565b60006135ea826134bc565b6135f481856134c7565b935083602082028501613606856134d8565b8060005b85811015613642578484038952815161362385826135be565b945061362e836135d2565b925060208a0199505060018101905061360a565b50829750879550505050505092915050565b6000602082019050818103600083015261366e81846135df565b905092915050565b6000806040838503121561368d5761368c613036565b5b600061369b858286016131ce565b92505060206136ac85828601613283565b9150509250929050565b6000806000606084860312156136cf576136ce613036565b5b600084013567ffffffffffffffff8111156136ed576136ec61303b565b5b6136f986828701613432565b935050602084013567ffffffffffffffff81111561371a5761371961303b565b5b61372686828701613432565b9250506040613737868287016131ce565b9150509250925092565b60006020828403121561375757613756613036565b5b600061376584828501613283565b91505092915050565b613777816131ad565b82525050565b6000602082019050613792600083018461376e565b92915050565b600060a08201905081810360008301526137b28188613152565b90506137c1602083018761376e565b6137ce604083018661376e565b6137db606083018561376e565b81810360808301526137ed8184613152565b90509695505050505050565b613802816130c5565b811461380d57600080fd5b50565b60008135905061381f816137f9565b92915050565b6000806040838503121561383c5761383b613036565b5b600061384a85828601613283565b925050602061385b85828601613810565b9150509250929050565b60006020828403121561387b5761387a613036565b5b600082013567ffffffffffffffff8111156138995761389861303b565b5b6138a584828501613432565b91505092915050565b600067ffffffffffffffff8211156138c9576138c8613335565b5b6138d282613141565b9050602081019050919050565b60006138f26138ed846138ae565b613395565b90508281526020810184848401111561390e5761390d613330565b5b6139198482856133e1565b509392505050565b600082601f8301126139365761393561332b565b5b81356139468482602086016138df565b91505092915050565b6000806000806080858703121561396957613968613036565b5b600061397787828801613283565b945050602061398887828801613283565b9350506040613999878288016131ce565b925050606085013567ffffffffffffffff8111156139ba576139b961303b565b5b6139c687828801613921565b91505092959194509250565b600080604083850312156139e9576139e8613036565b5b60006139f785828601613283565b9250506020613a0885828601613283565b9150509250929050565b7f4e487b7100000000000000000000000000000000000000000000000000000000600052602260045260246000fd5b60006002820490506001821680613a5957607f821691505b602082108103613a6c57613a6b613a12565b5b50919050565b7f4552433732313a20617070726f76616c20746f2063757272656e74206f776e6560008201527f7200000000000000000000000000000000000000000000000000000000000000602082015250565b6000613ace602183613106565b9150613ad982613a72565b604082019050919050565b60006020820190508181036000830152613afd81613ac1565b9050919050565b7f4552433732313a20617070726f76652063616c6c6572206973206e6f7420746f60008201527f6b656e206f776e6572206f7220617070726f76656420666f7220616c6c000000602082015250565b6000613b60603d83613106565b9150613b6b82613b04565b604082019050919050565b60006020820190508181036000830152613b8f81613b53565b9050919050565b7f4552433732313a2063616c6c6572206973206e6f7420746f6b656e206f776e6560008201527f72206f7220617070726f76656400000000000000000000000000000000000000602082015250565b6000613bf2602d83613106565b9150613bfd82613b96565b604082019050919050565b60006020820190508181036000830152613c2181613be5565b9050919050565b7f54686520616d6f756e74206973206e6f7420636f727265637421000000000000600082015250565b6000613c5e601a83613106565b9150613c6982613c28565b602082019050919050565b60006020820190508181036000830152613c8d81613c51565b9050919050565b7f4e487b7100000000000000000000000000000000000000000000000000000000600052603260045260246000fd5b7f596f752063616e6e6f27742062757920796f7572206f776e206361726420616760008201527f61696e2021000000000000000000000000000000000000000000000000000000602082015250565b6000613d1f602583613106565b9150613d2a82613cc3565b604082019050919050565b60006020820190508181036000830152613d4e81613d12565b9050919050565b7f4e487b7100000000000000000000000000000000000000000000000000000000600052601160045260246000fd5b6000613d8f826131ad565b915060008203613da257613da1613d55565b5b600182039050919050565b6000604082019050613dc2600083018561376e565b613dcf602083018461376e565b9392505050565b6000613de1826131ad565b91507fffffffffffffffffffffffffffffffffffffffffffffffffffffffffffffffff8203613e1357613e12613d55565b5b600182019050919050565b7f4552433732313a20696e76616c696420746f6b656e2049440000000000000000600082015250565b6000613e54601883613106565b9150613e5f82613e1e565b602082019050919050565b60006020820190508181036000830152613e8381613e47565b9050919050565b600081905092915050565b6000613ea0826130fb565b613eaa8185613e8a565b9350613eba818560208601613117565b80840191505092915050565b6000613ed28284613e95565b915081905092915050565b60008190508160005260206000209050919050565b60008154613eff81613a41565b613f098186613e8a565b94506001821660008114613f245760018114613f3957613f6c565b60ff1983168652811515820286019350613f6c565b613f4285613edd565b60005b83811015613f6457815481890152600182019150602081019050613f45565b838801955050505b50505092915050565b6000613f818284613ef2565b915081905092915050565b60006020601f8301049050919050565b600082821b905092915050565b600060088302613fd97fffffffffffffffffffffffffffffffffffffffffffffffffffffffffffffffff82613f9c565b613fe38683613f9c565b95508019841693508086168417925050509392505050565b6000819050919050565b600061402061401b614016846131ad565b613ffb565b6131ad565b9050919050565b6000819050919050565b61403a83614005565b61404e61404682614027565b848454613fa9565b825550505050565b600090565b614063614056565b61406e818484614031565b505050565b5b818110156140925761408760008261405b565b600181019050614074565b5050565b601f8211156140d7576140a881613edd565b6140b184613f8c565b810160208510156140c0578190505b6140d46140cc85613f8c565b830182614073565b50505b505050565b600082821c905092915050565b60006140fa600019846008026140dc565b1980831691505092915050565b600061411383836140e9565b9150826002028217905092915050565b61412c826130fb565b67ffffffffffffffff81111561414557614144613335565b5b61414f8254613a41565b61415a828285614096565b600060209050601f83116001811461418d576000841561417b578287015190505b6141858582614107565b8655506141ed565b601f19841661419b86613edd565b60005b828110156141c35784890151825560018201915060208501945060208101905061419e565b868310156141e057848901516141dc601f8916826140e9565b8355505b6001600288020188555050505b505050505050565b7f4552433732313a2061646472657373207a65726f206973206e6f74206120766160008201527f6c6964206f776e65720000000000000000000000000000000000000000000000602082015250565b6000614251602983613106565b915061425c826141f5565b604082019050919050565b6000602082019050818103600083015261428081614244565b9050919050565b7f6261736535000000000000000000000000000000000000000000000000000000600082015250565b60006142bd600583613e8a565b91506142c882614287565b600582019050919050565b60006142de826142b0565b9150819050919050565b7f70676f0000000000000000000000000000000000000000000000000000000000600082015250565b600061431e600383613e8a565b9150614329826142e8565b600382019050919050565b600061433f82614311565b9150819050919050565b7f6470310000000000000000000000000000000000000000000000000000000000600082015250565b600061437f600383613e8a565b915061438a82614349565b600382019050919050565b60006143a082614372565b9150819050919050565b60006143b5826131ad565b91506143c0836131ad565b92508282039050818111156143d8576143d7613d55565b5b92915050565b7f2d00000000000000000000000000000000000000000000000000000000000000815250565b60006144108284613e95565b915061441b826143de565b60018201915081905092915050565b60006144368285613e95565b91506144428284613e95565b91508190509392505050565b7f4f776e61626c653a206e6577206f776e657220697320746865207a65726f206160008201527f6464726573730000000000000000000000000000000000000000000000000000602082015250565b60006144aa602683613106565b91506144b58261444e565b604082019050919050565b600060208201905081810360008301526144d98161449d565b9050919050565b7f4552433732313a207472616e736665722066726f6d20696e636f72726563742060008201527f6f776e6572000000000000000000000000000000000000000000000000000000602082015250565b600061453c602583613106565b9150614547826144e0565b604082019050919050565b6000602082019050818103600083015261456b8161452f565b9050919050565b7f4552433732313a207472616e7366657220746f20746865207a65726f2061646460008201527f7265737300000000000000000000000000000000000000000000000000000000602082015250565b60006145ce602483613106565b91506145d982614572565b604082019050919050565b600060208201905081810360008301526145fd816145c1565b9050919050565b6000604082019050614619600083018561376e565b818103602083015261462b8184613152565b90509392505050565b7f4f776e61626c653a2063616c6c6572206973206e6f7420746865206f776e6572600082015250565b600061466a602083613106565b915061467582614634565b602082019050919050565b600060208201905081810360008301526146998161465d565b9050919050565b6000819050919050565b6146bb6146b6826131ad565b6146a0565b82525050565b60008160601b9050919050565b60006146d9826146c1565b9050919050565b60006146eb826146ce565b9050919050565b6147036146fe82613230565b6146e0565b82525050565b600061471582856146aa565b60208201915061472582846146f2565b6014820191508190509392505050565b7f4e487b7100000000000000000000000000000000000000000000000000000000600052601260045260246000fd5b600061476f826131ad565b915061477a836131ad565b92508261478a57614789614735565b5b828206905092915050565b7f4552433732313a20617070726f766520746f2063616c6c657200000000000000600082015250565b60006147cb601983613106565b91506147d682614795565b602082019050919050565b600060208201905081810360008301526147fa816147be565b9050919050565b7f4552433732313a207472616e7366657220746f206e6f6e20455243373231526560008201527f63656976657220696d706c656d656e7465720000000000000000000000000000602082015250565b600061485d603283613106565b915061486882614801565b604082019050919050565b6000602082019050818103600083015261488c81614850565b9050919050565b600081519050919050565b600082825260208201905092915050565b60006148ba82614893565b6148c4818561489e565b93506148d4818560208601613117565b6148dd81613141565b840191505092915050565b60006080820190506148fd6000830187613242565b61490a6020830186613242565b614917604083018561376e565b818103606083015261492981846148af565b905095945050505050565b6000815190506149438161306c565b92915050565b60006020828403121561495f5761495e613036565b5b600061496d84828501614934565b91505092915050565b7f4552433732313a206d696e7420746f20746865207a65726f2061646472657373600082015250565b60006149ac602083613106565b91506149b782614976565b602082019050919050565b600060208201905081810360008301526149db8161499f565b9050919050565b7f4552433732313a20746f6b656e20616c7265616479206d696e74656400000000600082015250565b6000614a18601c83613106565b9150614a23826149e2565b602082019050919050565b60006020820190508181036000830152614a4781614a0b565b905091905056fea26469706673582212201505c340faa2fc3e148f1706f2f2c2ae2a92b91adfeab91f8df931d3498c16f564736f6c63430008130033",
  "linkReferences": {},
  "deployedLinkReferences": {}
}