{
  "_format": "hh-sol-artifact-1",
  "contractName": "CardToken",
  "sourceName": "contracts/CardToken.sol",
  "abi": [
    {
      "inputs": [],
      "stateMutability": "nonpayable",
      "type": "constructor"
    },
    {
      "anonymous": false,
      "inputs": [
        {
          "indexed": true,
          "internalType": "address",
          "name": "owner",
          "type": "address"
        },
        {
          "indexed": true,
          "internalType": "address",
          "name": "approved",
          "type": "address"
        },
        {
          "indexed": true,
          "internalType": "uint256",
          "name": "tokenId",
          "type": "uint256"
        }
      ],
      "name": "Approval",
      "type": "event"
    },
    {
      "anonymous": false,
      "inputs": [
        {
          "indexed": true,
          "internalType": "address",
          "name": "owner",
          "type": "address"
        },
        {
          "indexed": true,
          "internalType": "address",
          "name": "operator",
          "type": "address"
        },
        {
          "indexed": false,
          "internalType": "bool",
          "name": "approved",
          "type": "bool"
        }
      ],
      "name": "ApprovalForAll",
      "type": "event"
    },
    {
      "anonymous": false,
      "inputs": [
        {
          "indexed": true,
          "internalType": "address",
          "name": "owner",
          "type": "address"
        },
        {
          "indexed": false,
          "internalType": "uint256",
          "name": "id",
          "type": "uint256"
        },
        {
          "indexed": false,
          "internalType": "string",
          "name": "name",
          "type": "string"
        }
      ],
      "name": "NewCard",
      "type": "event"
    },
    {
      "anonymous": false,
      "inputs": [
        {
          "indexed": true,
          "internalType": "address",
          "name": "previousOwner",
          "type": "address"
        },
        {
          "indexed": true,
          "internalType": "address",
          "name": "newOwner",
          "type": "address"
        }
      ],
      "name": "OwnershipTransferred",
      "type": "event"
    },
    {
      "anonymous": false,
      "inputs": [
        {
          "indexed": true,
          "internalType": "address",
          "name": "from",
          "type": "address"
        },
        {
          "indexed": true,
          "internalType": "address",
          "name": "to",
          "type": "address"
        },
        {
          "indexed": true,
          "internalType": "uint256",
          "name": "tokenId",
          "type": "uint256"
        }
      ],
      "name": "Transfer",
      "type": "event"
    },
    {
      "inputs": [
        {
          "internalType": "address",
          "name": "to",
          "type": "address"
        },
        {
          "internalType": "uint256",
          "name": "tokenId",
          "type": "uint256"
        }
      ],
      "name": "approve",
      "outputs": [],
      "stateMutability": "nonpayable",
      "type": "function"
    },
    {
      "inputs": [
        {
          "internalType": "address",
          "name": "owner",
          "type": "address"
        }
      ],
      "name": "balanceOf",
      "outputs": [
        {
          "internalType": "uint256",
          "name": "",
          "type": "uint256"
        }
      ],
      "stateMutability": "view",
      "type": "function"
    },
    {
      "inputs": [
        {
          "internalType": "uint256",
          "name": "",
          "type": "uint256"
        }
      ],
      "name": "cards",
      "outputs": [
        {
          "internalType": "string",
          "name": "name",
          "type": "string"
        },
        {
          "internalType": "uint256",
          "name": "id",
          "type": "uint256"
        },
        {
          "internalType": "uint256",
          "name": "cardNum",
          "type": "uint256"
        }
      ],
      "stateMutability": "view",
      "type": "function"
    },
    {
      "inputs": [
        {
          "internalType": "uint256",
          "name": "tokenId",
          "type": "uint256"
        }
      ],
      "name": "getApproved",
      "outputs": [
        {
          "internalType": "address",
          "name": "",
          "type": "address"
        }
      ],
      "stateMutability": "view",
      "type": "function"
    },
    {
      "inputs": [],
      "name": "getCardTokens",
      "outputs": [
        {
          "components": [
            {
              "internalType": "string",
              "name": "name",
              "type": "string"
            },
            {
              "internalType": "uint256",
              "name": "id",
              "type": "uint256"
            },
            {
              "internalType": "uint256",
              "name": "cardNum",
              "type": "uint256"
            }
          ],
          "internalType": "struct CardToken.Card[]",
          "name": "",
          "type": "tuple[]"
        }
      ],
      "stateMutability": "view",
      "type": "function"
    },
    {
      "inputs": [
        {
          "internalType": "address",
          "name": "_owner",
          "type": "address"
        }
      ],
      "name": "getOwnerCards",
      "outputs": [
        {
          "components": [
            {
              "internalType": "string",
              "name": "name",
              "type": "string"
            },
            {
              "internalType": "uint256",
              "name": "id",
              "type": "uint256"
            },
            {
              "internalType": "uint256",
              "name": "cardNum",
              "type": "uint256"
            }
          ],
          "internalType": "struct CardToken.Card[]",
          "name": "",
          "type": "tuple[]"
        }
      ],
      "stateMutability": "view",
      "type": "function"
    },
    {
      "inputs": [
        {
          "internalType": "address",
          "name": "owner",
          "type": "address"
        },
        {
          "internalType": "address",
          "name": "operator",
          "type": "address"
        }
      ],
      "name": "isApprovedForAll",
      "outputs": [
        {
          "internalType": "bool",
          "name": "",
          "type": "bool"
        }
      ],
      "stateMutability": "view",
      "type": "function"
    },
    {
      "inputs": [
        {
          "internalType": "string",
          "name": "_name",
          "type": "string"
        },
        {
          "internalType": "uint256",
          "name": "_cardNum",
          "type": "uint256"
        }
      ],
      "name": "mintCard",
      "outputs": [],
      "stateMutability": "payable",
      "type": "function"
    },
    {
      "inputs": [
        {
          "internalType": "uint256",
          "name": "_collectionCardCount",
          "type": "uint256"
        }
      ],
      "name": "mintRandomCard",
      "outputs": [],
      "stateMutability": "nonpayable",
      "type": "function"
    },
    {
      "inputs": [],
      "name": "name",
      "outputs": [
        {
          "internalType": "string",
          "name": "",
          "type": "string"
        }
      ],
      "stateMutability": "view",
      "type": "function"
    },
    {
      "inputs": [],
      "name": "owner",
      "outputs": [
        {
          "internalType": "address",
          "name": "",
          "type": "address"
        }
      ],
      "stateMutability": "view",
      "type": "function"
    },
    {
      "inputs": [
        {
          "internalType": "uint256",
          "name": "tokenId",
          "type": "uint256"
        }
      ],
      "name": "ownerOf",
      "outputs": [
        {
          "internalType": "address",
          "name": "",
          "type": "address"
        }
      ],
      "stateMutability": "view",
      "type": "function"
    },
    {
      "inputs": [],
      "name": "renounceOwnership",
      "outputs": [],
      "stateMutability": "nonpayable",
      "type": "function"
    },
    {
      "inputs": [
        {
          "internalType": "address",
          "name": "from",
          "type": "address"
        },
        {
          "internalType": "address",
          "name": "to",
          "type": "address"
        },
        {
          "internalType": "uint256",
          "name": "tokenId",
          "type": "uint256"
        }
      ],
      "name": "safeTransferFrom",
      "outputs": [],
      "stateMutability": "nonpayable",
      "type": "function"
    },
    {
      "inputs": [
        {
          "internalType": "address",
          "name": "from",
          "type": "address"
        },
        {
          "internalType": "address",
          "name": "to",
          "type": "address"
        },
        {
          "internalType": "uint256",
          "name": "tokenId",
          "type": "uint256"
        },
        {
          "internalType": "bytes",
          "name": "data",
          "type": "bytes"
        }
      ],
      "name": "safeTransferFrom",
      "outputs": [],
      "stateMutability": "nonpayable",
      "type": "function"
    },
    {
      "inputs": [
        {
          "internalType": "address",
          "name": "operator",
          "type": "address"
        },
        {
          "internalType": "bool",
          "name": "approved",
          "type": "bool"
        }
      ],
      "name": "setApprovalForAll",
      "outputs": [],
      "stateMutability": "nonpayable",
      "type": "function"
    },
    {
      "inputs": [
        {
          "internalType": "bytes4",
          "name": "interfaceId",
          "type": "bytes4"
        }
      ],
      "name": "supportsInterface",
      "outputs": [
        {
          "internalType": "bool",
          "name": "",
          "type": "bool"
        }
      ],
      "stateMutability": "view",
      "type": "function"
    },
    {
      "inputs": [],
      "name": "symbol",
      "outputs": [
        {
          "internalType": "string",
          "name": "",
          "type": "string"
        }
      ],
      "stateMutability": "view",
      "type": "function"
    },
    {
      "inputs": [
        {
          "internalType": "uint256",
          "name": "tokenId",
          "type": "uint256"
        }
      ],
      "name": "tokenURI",
      "outputs": [
        {
          "internalType": "string",
          "name": "",
          "type": "string"
        }
      ],
      "stateMutability": "view",
      "type": "function"
    },
    {
      "inputs": [
        {
          "internalType": "address",
          "name": "from",
          "type": "address"
        },
        {
          "internalType": "address",
          "name": "to",
          "type": "address"
        },
        {
          "internalType": "uint256",
          "name": "tokenId",
          "type": "uint256"
        }
      ],
      "name": "transferFrom",
      "outputs": [],
      "stateMutability": "nonpayable",
      "type": "function"
    },
    {
      "inputs": [
        {
          "internalType": "address",
          "name": "newOwner",
          "type": "address"
        }
      ],
      "name": "transferOwnership",
      "outputs": [],
      "stateMutability": "nonpayable",
      "type": "function"
    },
    {
      "inputs": [
        {
          "internalType": "uint256",
          "name": "_fee",
          "type": "uint256"
        }
      ],
      "name": "updateFee",
      "outputs": [],
      "stateMutability": "nonpayable",
      "type": "function"
    },
    {
      "inputs": [],
      "name": "withdraw",
      "outputs": [],
      "stateMutability": "payable",
      "type": "function"
    }
  ],
  "bytecode": "0x6080604052670de0b6b3a76400006008553480156200001d57600080fd5b506040518060400160405280600981526020017f43617264546f6b656e00000000000000000000000000000000000000000000008152506040518060400160405280600381526020017f43544b000000000000000000000000000000000000000000000000000000000081525081600090816200009b91906200041e565b508060019081620000ad91906200041e565b505050620000d0620000c4620000d660201b60201c565b620000de60201b60201c565b62000505565b600033905090565b6000600660009054906101000a900473ffffffffffffffffffffffffffffffffffffffff16905081600660006101000a81548173ffffffffffffffffffffffffffffffffffffffff021916908373ffffffffffffffffffffffffffffffffffffffff1602179055508173ffffffffffffffffffffffffffffffffffffffff168173ffffffffffffffffffffffffffffffffffffffff167f8be0079c531659141344cd1fd0a4f28419497f9722a3daafe3b4186f6b6457e060405160405180910390a35050565b600081519050919050565b7f4e487b7100000000000000000000000000000000000000000000000000000000600052604160045260246000fd5b7f4e487b7100000000000000000000000000000000000000000000000000000000600052602260045260246000fd5b600060028204905060018216806200022657607f821691505b6020821081036200023c576200023b620001de565b5b50919050565b60008190508160005260206000209050919050565b60006020601f8301049050919050565b600082821b905092915050565b600060088302620002a67fffffffffffffffffffffffffffffffffffffffffffffffffffffffffffffffff8262000267565b620002b2868362000267565b95508019841693508086168417925050509392505050565b6000819050919050565b6000819050919050565b6000620002ff620002f9620002f384620002ca565b620002d4565b620002ca565b9050919050565b6000819050919050565b6200031b83620002de565b620003336200032a8262000306565b84845462000274565b825550505050565b600090565b6200034a6200033b565b6200035781848462000310565b505050565b5b818110156200037f576200037360008262000340565b6001810190506200035d565b5050565b601f821115620003ce57620003988162000242565b620003a38462000257565b81016020851015620003b3578190505b620003cb620003c28562000257565b8301826200035c565b50505b505050565b600082821c905092915050565b6000620003f360001984600802620003d3565b1980831691505092915050565b60006200040e8383620003e0565b9150826002028217905092915050565b6200042982620001a4565b67ffffffffffffffff811115620004455762000444620001af565b5b6200045182546200020d565b6200045e82828562000383565b600060209050601f83116001811462000496576000841562000481578287015190505b6200048d858262000400565b865550620004fd565b601f198416620004a68662000242565b60005b82811015620004d057848901518255600182019150602085019450602081019050620004a9565b86831015620004f05784890151620004ec601f891682620003e0565b8355505b6001600288020188555050505b505050505050565b61378380620005156000396000f3fe6080604052600436106101405760003560e01c806370a08231116100b6578063a22cb4651161006f578063a22cb4651461042e578063b88d4fde14610457578063bec77cb114610480578063c87b56dd146104bd578063e985e9c5146104fa578063f2fde38b1461053757610140565b806370a082311461031c578063715018a6146103595780638da5cb5b146103705780638dc107681461039b5780639012c4a8146103da57806395d89b411461040357610140565b806323b872dd1161010857806323b872dd1461023c578063306b0fcc14610265578063383def3f146102815780633ccfd60b146102ac57806342842e0e146102b65780636352211e146102df57610140565b806301ffc9a71461014557806306fdde0314610182578063081812fc146101ad578063095ea7b3146101ea5780630d6a165e14610213575b600080fd5b34801561015157600080fd5b5061016c60048036038101906101679190612233565b610560565b604051610179919061227b565b60405180910390f35b34801561018e57600080fd5b50610197610642565b6040516101a49190612326565b60405180910390f35b3480156101b957600080fd5b506101d460048036038101906101cf919061237e565b6106d4565b6040516101e191906123ec565b60405180910390f35b3480156101f657600080fd5b50610211600480360381019061020c9190612433565b61071a565b005b34801561021f57600080fd5b5061023a6004803603810190610235919061237e565b610831565b005b34801561024857600080fd5b50610263600480360381019061025e9190612473565b610881565b005b61027f600480360381019061027a91906125fb565b6108e1565b005b34801561028d57600080fd5b50610296610934565b6040516102a391906127c2565b60405180910390f35b6102b4610a39565b005b3480156102c257600080fd5b506102dd60048036038101906102d89190612473565b610a97565b005b3480156102eb57600080fd5b506103066004803603810190610301919061237e565b610ab7565b60405161031391906123ec565b60405180910390f35b34801561032857600080fd5b50610343600480360381019061033e91906127e4565b610b3d565b6040516103509190612820565b60405180910390f35b34801561036557600080fd5b5061036e610bf4565b005b34801561037c57600080fd5b50610385610c08565b60405161039291906123ec565b60405180910390f35b3480156103a757600080fd5b506103c260048036038101906103bd919061237e565b610c32565b6040516103d19392919061283b565b60405180910390f35b3480156103e657600080fd5b5061040160048036038101906103fc919061237e565b610cf4565b005b34801561040f57600080fd5b50610418610d06565b6040516104259190612326565b60405180910390f35b34801561043a57600080fd5b50610455600480360381019061045091906128a5565b610d98565b005b34801561046357600080fd5b5061047e60048036038101906104799190612986565b610dae565b005b34801561048c57600080fd5b506104a760048036038101906104a291906127e4565b610e10565b6040516104b491906127c2565b60405180910390f35b3480156104c957600080fd5b506104e460048036038101906104df919061237e565b610fdc565b6040516104f19190612326565b60405180910390f35b34801561050657600080fd5b50610521600480360381019061051c9190612a09565b611044565b60405161052e919061227b565b60405180910390f35b34801561054357600080fd5b5061055e600480360381019061055991906127e4565b6110d8565b005b60007f80ac58cd000000000000000000000000000000000000000000000000000000007bffffffffffffffffffffffffffffffffffffffffffffffffffffffff1916827bffffffffffffffffffffffffffffffffffffffffffffffffffffffff1916148061062b57507f5b5e139f000000000000000000000000000000000000000000000000000000007bffffffffffffffffffffffffffffffffffffffffffffffffffffffff1916827bffffffffffffffffffffffffffffffffffffffffffffffffffffffff1916145b8061063b575061063a8261115b565b5b9050919050565b60606000805461065190612a78565b80601f016020809104026020016040519081016040528092919081815260200182805461067d90612a78565b80156106ca5780601f1061069f576101008083540402835291602001916106ca565b820191906000526020600020905b8154815290600101906020018083116106ad57829003601f168201915b5050505050905090565b60006106df826111c5565b6004600083815260200190815260200160002060009054906101000a900473ffffffffffffffffffffffffffffffffffffffff169050919050565b600061072582610ab7565b90508073ffffffffffffffffffffffffffffffffffffffff168373ffffffffffffffffffffffffffffffffffffffff1603610795576040517f08c379a000000000000000000000000000000000000000000000000000000000815260040161078c90612b1b565b60405180910390fd5b8073ffffffffffffffffffffffffffffffffffffffff166107b4611210565b73ffffffffffffffffffffffffffffffffffffffff1614806107e357506107e2816107dd611210565b611044565b5b610822576040517f08c379a000000000000000000000000000000000000000000000000000000000815260040161081990612bad565b60405180910390fd5b61082c8383611218565b505050565b600061083c826112d1565b905061087d6040518060400160405280600981526020017f746f5f6368616e6765000000000000000000000000000000000000000000000081525082611316565b5050565b61089261088c611210565b8261140a565b6108d1576040517f08c379a00000000000000000000000000000000000000000000000000000000081526004016108c890612c3f565b60405180910390fd5b6108dc83838361149f565b505050565b600854341015610926576040517f08c379a000000000000000000000000000000000000000000000000000000000815260040161091d90612cab565b60405180910390fd5b6109308282611316565b5050565b60606009805480602002602001604051908101604052809291908181526020016000905b82821015610a30578382906000526020600020906003020160405180606001604052908160008201805461098b90612a78565b80601f01602080910402602001604051908101604052809291908181526020018280546109b790612a78565b8015610a045780601f106109d957610100808354040283529160200191610a04565b820191906000526020600020905b8154815290600101906020018083116109e757829003601f168201915b505050505081526020016001820154815260200160028201548152505081526020019060010190610958565b50505050905090565b610a41611798565b6000610a4b610c08565b90508073ffffffffffffffffffffffffffffffffffffffff166108fc479081150290604051600060405180830381858888f19350505050158015610a93573d6000803e3d6000fd5b5050565b610ab283838360405180602001604052806000815250610dae565b505050565b600080610ac383611816565b9050600073ffffffffffffffffffffffffffffffffffffffff168173ffffffffffffffffffffffffffffffffffffffff1603610b34576040517f08c379a0000000000000000000000000000000000000000000000000000000008152600401610b2b90612d17565b60405180910390fd5b80915050919050565b60008073ffffffffffffffffffffffffffffffffffffffff168273ffffffffffffffffffffffffffffffffffffffff1603610bad576040517f08c379a0000000000000000000000000000000000000000000000000000000008152600401610ba490612da9565b60405180910390fd5b600360008373ffffffffffffffffffffffffffffffffffffffff1673ffffffffffffffffffffffffffffffffffffffff168152602001908152602001600020549050919050565b610bfc611798565b610c066000611853565b565b6000600660009054906101000a900473ffffffffffffffffffffffffffffffffffffffff16905090565b60098181548110610c4257600080fd5b9060005260206000209060030201600091509050806000018054610c6590612a78565b80601f0160208091040260200160405190810160405280929190818152602001828054610c9190612a78565b8015610cde5780601f10610cb357610100808354040283529160200191610cde565b820191906000526020600020905b815481529060010190602001808311610cc157829003601f168201915b5050505050908060010154908060020154905083565b610cfc611798565b8060088190555050565b606060018054610d1590612a78565b80601f0160208091040260200160405190810160405280929190818152602001828054610d4190612a78565b8015610d8e5780601f10610d6357610100808354040283529160200191610d8e565b820191906000526020600020905b815481529060010190602001808311610d7157829003601f168201915b5050505050905090565b610daa610da3611210565b8383611919565b5050565b610dbf610db9611210565b8361140a565b610dfe576040517f08c379a0000000000000000000000000000000000000000000000000000000008152600401610df590612c3f565b60405180910390fd5b610e0a84848484611a85565b50505050565b60606000610e1d83610b3d565b67ffffffffffffffff811115610e3657610e356124d0565b5b604051908082528060200260200182016040528015610e6f57816020015b610e5c6121a6565b815260200190600190039081610e545790505b5090506000805b600980549050811015610fd1578473ffffffffffffffffffffffffffffffffffffffff16610ea382610ab7565b73ffffffffffffffffffffffffffffffffffffffff1603610fbe5760098181548110610ed257610ed1612dc9565b5b9060005260206000209060030201604051806060016040529081600082018054610efb90612a78565b80601f0160208091040260200160405190810160405280929190818152602001828054610f2790612a78565b8015610f745780601f10610f4957610100808354040283529160200191610f74565b820191906000526020600020905b815481529060010190602001808311610f5757829003601f168201915b5050505050815260200160018201548152602001600282015481525050838381518110610fa457610fa3612dc9565b5b60200260200101819052508180610fba90612e27565b9250505b8080610fc990612e27565b915050610e76565b508192505050919050565b6060610fe7826111c5565b6000610ff1611ae1565b90506000815111611011576040518060200160405280600081525061103c565b8061101b84611af8565b60405160200161102c929190612eab565b6040516020818303038152906040525b915050919050565b6000600560008473ffffffffffffffffffffffffffffffffffffffff1673ffffffffffffffffffffffffffffffffffffffff16815260200190815260200160002060008373ffffffffffffffffffffffffffffffffffffffff1673ffffffffffffffffffffffffffffffffffffffff16815260200190815260200160002060009054906101000a900460ff16905092915050565b6110e0611798565b600073ffffffffffffffffffffffffffffffffffffffff168173ffffffffffffffffffffffffffffffffffffffff160361114f576040517f08c379a000000000000000000000000000000000000000000000000000000000815260040161114690612f41565b60405180910390fd5b61115881611853565b50565b60007f01ffc9a7000000000000000000000000000000000000000000000000000000007bffffffffffffffffffffffffffffffffffffffffffffffffffffffff1916827bffffffffffffffffffffffffffffffffffffffffffffffffffffffff1916149050919050565b6111ce81611bc6565b61120d576040517f08c379a000000000000000000000000000000000000000000000000000000000815260040161120490612d17565b60405180910390fd5b50565b600033905090565b816004600083815260200190815260200160002060006101000a81548173ffffffffffffffffffffffffffffffffffffffff021916908373ffffffffffffffffffffffffffffffffffffffff160217905550808273ffffffffffffffffffffffffffffffffffffffff1661128b83610ab7565b73ffffffffffffffffffffffffffffffffffffffff167f8c5be1e5ebec7d5bd14f71427d1e84f3dd0314c0f7b2291e5b200ac8c7c3b92560405160405180910390a45050565b60008042336040516020016112e7929190612fca565b6040516020818303038152906040528051906020012060001c9050828161130e9190613025565b915050919050565b600060405180606001604052808481526020016007548152602001838152509050600981908060018154018082558091505060019003906000526020600020906003020160009091909190915060008201518160000190816113789190613202565b506020820151816001015560408201518160020155505061139b33600754611c07565b3373ffffffffffffffffffffffffffffffffffffffff167fb3fa422253152603b2f147d59ed070dd9ed60ebee9f6ee5f07bd2be62df7df28600754856040516113e59291906132d4565b60405180910390a26007600081548092919061140090612e27565b9190505550505050565b60008061141683610ab7565b90508073ffffffffffffffffffffffffffffffffffffffff168473ffffffffffffffffffffffffffffffffffffffff16148061145857506114578185611044565b5b8061149657508373ffffffffffffffffffffffffffffffffffffffff1661147e846106d4565b73ffffffffffffffffffffffffffffffffffffffff16145b91505092915050565b8273ffffffffffffffffffffffffffffffffffffffff166114bf82610ab7565b73ffffffffffffffffffffffffffffffffffffffff1614611515576040517f08c379a000000000000000000000000000000000000000000000000000000000815260040161150c90613376565b60405180910390fd5b600073ffffffffffffffffffffffffffffffffffffffff168273ffffffffffffffffffffffffffffffffffffffff1603611584576040517f08c379a000000000000000000000000000000000000000000000000000000000815260040161157b90613408565b60405180910390fd5b6115918383836001611c25565b8273ffffffffffffffffffffffffffffffffffffffff166115b182610ab7565b73ffffffffffffffffffffffffffffffffffffffff1614611607576040517f08c379a00000000000000000000000000000000000000000000000000000000081526004016115fe90613376565b60405180910390fd5b6004600082815260200190815260200160002060006101000a81549073ffffffffffffffffffffffffffffffffffffffff02191690556001600360008573ffffffffffffffffffffffffffffffffffffffff1673ffffffffffffffffffffffffffffffffffffffff168152602001908152602001600020600082825403925050819055506001600360008473ffffffffffffffffffffffffffffffffffffffff1673ffffffffffffffffffffffffffffffffffffffff16815260200190815260200160002060008282540192505081905550816002600083815260200190815260200160002060006101000a81548173ffffffffffffffffffffffffffffffffffffffff021916908373ffffffffffffffffffffffffffffffffffffffff160217905550808273ffffffffffffffffffffffffffffffffffffffff168473ffffffffffffffffffffffffffffffffffffffff167fddf252ad1be2c89b69c2b068fc378daa952ba7f163c4a11628f55a4df523b3ef60405160405180910390a46117938383836001611c2b565b505050565b6117a0611210565b73ffffffffffffffffffffffffffffffffffffffff166117be610c08565b73ffffffffffffffffffffffffffffffffffffffff1614611814576040517f08c379a000000000000000000000000000000000000000000000000000000000815260040161180b90613474565b60405180910390fd5b565b60006002600083815260200190815260200160002060009054906101000a900473ffffffffffffffffffffffffffffffffffffffff169050919050565b6000600660009054906101000a900473ffffffffffffffffffffffffffffffffffffffff16905081600660006101000a81548173ffffffffffffffffffffffffffffffffffffffff021916908373ffffffffffffffffffffffffffffffffffffffff1602179055508173ffffffffffffffffffffffffffffffffffffffff168173ffffffffffffffffffffffffffffffffffffffff167f8be0079c531659141344cd1fd0a4f28419497f9722a3daafe3b4186f6b6457e060405160405180910390a35050565b8173ffffffffffffffffffffffffffffffffffffffff168373ffffffffffffffffffffffffffffffffffffffff1603611987576040517f08c379a000000000000000000000000000000000000000000000000000000000815260040161197e906134e0565b60405180910390fd5b80600560008573ffffffffffffffffffffffffffffffffffffffff1673ffffffffffffffffffffffffffffffffffffffff16815260200190815260200160002060008473ffffffffffffffffffffffffffffffffffffffff1673ffffffffffffffffffffffffffffffffffffffff16815260200190815260200160002060006101000a81548160ff0219169083151502179055508173ffffffffffffffffffffffffffffffffffffffff168373ffffffffffffffffffffffffffffffffffffffff167f17307eab39ab6107e8899845ad3d59bd9653f200f220920489ca2b5937696c3183604051611a78919061227b565b60405180910390a3505050565b611a9084848461149f565b611a9c84848484611c31565b611adb576040517f08c379a0000000000000000000000000000000000000000000000000000000008152600401611ad290613572565b60405180910390fd5b50505050565b606060405180602001604052806000815250905090565b606060006001611b0784611db8565b01905060008167ffffffffffffffff811115611b2657611b256124d0565b5b6040519080825280601f01601f191660200182016040528015611b585781602001600182028036833780820191505090505b509050600082602001820190505b600115611bbb578080600190039150507f3031323334353637383961626364656600000000000000000000000000000000600a86061a8153600a8581611baf57611bae612ff6565b5b04945060008503611b66575b819350505050919050565b60008073ffffffffffffffffffffffffffffffffffffffff16611be883611816565b73ffffffffffffffffffffffffffffffffffffffff1614159050919050565b611c21828260405180602001604052806000815250611f0b565b5050565b50505050565b50505050565b6000611c528473ffffffffffffffffffffffffffffffffffffffff16611f66565b15611dab578373ffffffffffffffffffffffffffffffffffffffff1663150b7a02611c7b611210565b8786866040518563ffffffff1660e01b8152600401611c9d94939291906135e7565b6020604051808303816000875af1925050508015611cd957506040513d601f19601f82011682018060405250810190611cd69190613648565b60015b611d5b573d8060008114611d09576040519150601f19603f3d011682016040523d82523d6000602084013e611d0e565b606091505b506000815103611d53576040517f08c379a0000000000000000000000000000000000000000000000000000000008152600401611d4a90613572565b60405180910390fd5b805181602001fd5b63150b7a0260e01b7bffffffffffffffffffffffffffffffffffffffffffffffffffffffff1916817bffffffffffffffffffffffffffffffffffffffffffffffffffffffff191614915050611db0565b600190505b949350505050565b600080600090507a184f03e93ff9f4daa797ed6e38ed64bf6a1f0100000000000000008310611e16577a184f03e93ff9f4daa797ed6e38ed64bf6a1f0100000000000000008381611e0c57611e0b612ff6565b5b0492506040810190505b6d04ee2d6d415b85acef81000000008310611e53576d04ee2d6d415b85acef81000000008381611e4957611e48612ff6565b5b0492506020810190505b662386f26fc100008310611e8257662386f26fc100008381611e7857611e77612ff6565b5b0492506010810190505b6305f5e1008310611eab576305f5e1008381611ea157611ea0612ff6565b5b0492506008810190505b6127108310611ed0576127108381611ec657611ec5612ff6565b5b0492506004810190505b60648310611ef35760648381611ee957611ee8612ff6565b5b0492506002810190505b600a8310611f02576001810190505b80915050919050565b611f158383611f89565b611f226000848484611c31565b611f61576040517f08c379a0000000000000000000000000000000000000000000000000000000008152600401611f5890613572565b60405180910390fd5b505050565b6000808273ffffffffffffffffffffffffffffffffffffffff163b119050919050565b600073ffffffffffffffffffffffffffffffffffffffff168273ffffffffffffffffffffffffffffffffffffffff1603611ff8576040517f08c379a0000000000000000000000000000000000000000000000000000000008152600401611fef906136c1565b60405180910390fd5b61200181611bc6565b15612041576040517f08c379a00000000000000000000000000000000000000000000000000000000081526004016120389061372d565b60405180910390fd5b61204f600083836001611c25565b61205881611bc6565b15612098576040517f08c379a000000000000000000000000000000000000000000000000000000000815260040161208f9061372d565b60405180910390fd5b6001600360008473ffffffffffffffffffffffffffffffffffffffff1673ffffffffffffffffffffffffffffffffffffffff16815260200190815260200160002060008282540192505081905550816002600083815260200190815260200160002060006101000a81548173ffffffffffffffffffffffffffffffffffffffff021916908373ffffffffffffffffffffffffffffffffffffffff160217905550808273ffffffffffffffffffffffffffffffffffffffff16600073ffffffffffffffffffffffffffffffffffffffff167fddf252ad1be2c89b69c2b068fc378daa952ba7f163c4a11628f55a4df523b3ef60405160405180910390a46121a2600083836001611c2b565b5050565b60405180606001604052806060815260200160008152602001600081525090565b6000604051905090565b600080fd5b600080fd5b60007fffffffff0000000000000000000000000000000000000000000000000000000082169050919050565b612210816121db565b811461221b57600080fd5b50565b60008135905061222d81612207565b92915050565b600060208284031215612249576122486121d1565b5b60006122578482850161221e565b91505092915050565b60008115159050919050565b61227581612260565b82525050565b6000602082019050612290600083018461226c565b92915050565b600081519050919050565b600082825260208201905092915050565b60005b838110156122d05780820151818401526020810190506122b5565b60008484015250505050565b6000601f19601f8301169050919050565b60006122f882612296565b61230281856122a1565b93506123128185602086016122b2565b61231b816122dc565b840191505092915050565b6000602082019050818103600083015261234081846122ed565b905092915050565b6000819050919050565b61235b81612348565b811461236657600080fd5b50565b60008135905061237881612352565b92915050565b600060208284031215612394576123936121d1565b5b60006123a284828501612369565b91505092915050565b600073ffffffffffffffffffffffffffffffffffffffff82169050919050565b60006123d6826123ab565b9050919050565b6123e6816123cb565b82525050565b600060208201905061240160008301846123dd565b92915050565b612410816123cb565b811461241b57600080fd5b50565b60008135905061242d81612407565b92915050565b6000806040838503121561244a576124496121d1565b5b60006124588582860161241e565b925050602061246985828601612369565b9150509250929050565b60008060006060848603121561248c5761248b6121d1565b5b600061249a8682870161241e565b93505060206124ab8682870161241e565b92505060406124bc86828701612369565b9150509250925092565b600080fd5b600080fd5b7f4e487b7100000000000000000000000000000000000000000000000000000000600052604160045260246000fd5b612508826122dc565b810181811067ffffffffffffffff82111715612527576125266124d0565b5b80604052505050565b600061253a6121c7565b905061254682826124ff565b919050565b600067ffffffffffffffff821115612566576125656124d0565b5b61256f826122dc565b9050602081019050919050565b82818337600083830152505050565b600061259e6125998461254b565b612530565b9050828152602081018484840111156125ba576125b96124cb565b5b6125c584828561257c565b509392505050565b600082601f8301126125e2576125e16124c6565b5b81356125f284826020860161258b565b91505092915050565b60008060408385031215612612576126116121d1565b5b600083013567ffffffffffffffff8111156126305761262f6121d6565b5b61263c858286016125cd565b925050602061264d85828601612369565b9150509250929050565b600081519050919050565b600082825260208201905092915050565b6000819050602082019050919050565b600082825260208201905092915050565b600061269f82612296565b6126a98185612683565b93506126b98185602086016122b2565b6126c2816122dc565b840191505092915050565b6126d681612348565b82525050565b600060608301600083015184820360008601526126f98282612694565b915050602083015161270e60208601826126cd565b50604083015161272160408601826126cd565b508091505092915050565b600061273883836126dc565b905092915050565b6000602082019050919050565b600061275882612657565b6127628185612662565b93508360208202850161277485612673565b8060005b858110156127b05784840389528151612791858261272c565b945061279c83612740565b925060208a01995050600181019050612778565b50829750879550505050505092915050565b600060208201905081810360008301526127dc818461274d565b905092915050565b6000602082840312156127fa576127f96121d1565b5b60006128088482850161241e565b91505092915050565b61281a81612348565b82525050565b60006020820190506128356000830184612811565b92915050565b6000606082019050818103600083015261285581866122ed565b90506128646020830185612811565b6128716040830184612811565b949350505050565b61288281612260565b811461288d57600080fd5b50565b60008135905061289f81612879565b92915050565b600080604083850312156128bc576128bb6121d1565b5b60006128ca8582860161241e565b92505060206128db85828601612890565b9150509250929050565b600067ffffffffffffffff821115612900576128ff6124d0565b5b612909826122dc565b9050602081019050919050565b6000612929612924846128e5565b612530565b905082815260208101848484011115612945576129446124cb565b5b61295084828561257c565b509392505050565b600082601f83011261296d5761296c6124c6565b5b813561297d848260208601612916565b91505092915050565b600080600080608085870312156129a05761299f6121d1565b5b60006129ae8782880161241e565b94505060206129bf8782880161241e565b93505060406129d087828801612369565b925050606085013567ffffffffffffffff8111156129f1576129f06121d6565b5b6129fd87828801612958565b91505092959194509250565b60008060408385031215612a2057612a1f6121d1565b5b6000612a2e8582860161241e565b9250506020612a3f8582860161241e565b9150509250929050565b7f4e487b7100000000000000000000000000000000000000000000000000000000600052602260045260246000fd5b60006002820490506001821680612a9057607f821691505b602082108103612aa357612aa2612a49565b5b50919050565b7f4552433732313a20617070726f76616c20746f2063757272656e74206f776e6560008201527f7200000000000000000000000000000000000000000000000000000000000000602082015250565b6000612b056021836122a1565b9150612b1082612aa9565b604082019050919050565b60006020820190508181036000830152612b3481612af8565b9050919050565b7f4552433732313a20617070726f76652063616c6c6572206973206e6f7420746f60008201527f6b656e206f776e6572206f7220617070726f76656420666f7220616c6c000000602082015250565b6000612b97603d836122a1565b9150612ba282612b3b565b604082019050919050565b60006020820190508181036000830152612bc681612b8a565b9050919050565b7f4552433732313a2063616c6c6572206973206e6f7420746f6b656e206f776e6560008201527f72206f7220617070726f76656400000000000000000000000000000000000000602082015250565b6000612c29602d836122a1565b9150612c3482612bcd565b604082019050919050565b60006020820190508181036000830152612c5881612c1c565b9050919050565b7f54686520616d6f756e74206973206e6f7420636f727265637421000000000000600082015250565b6000612c95601a836122a1565b9150612ca082612c5f565b602082019050919050565b60006020820190508181036000830152612cc481612c88565b9050919050565b7f4552433732313a20696e76616c696420746f6b656e2049440000000000000000600082015250565b6000612d016018836122a1565b9150612d0c82612ccb565b602082019050919050565b60006020820190508181036000830152612d3081612cf4565b9050919050565b7f4552433732313a2061646472657373207a65726f206973206e6f74206120766160008201527f6c6964206f776e65720000000000000000000000000000000000000000000000602082015250565b6000612d936029836122a1565b9150612d9e82612d37565b604082019050919050565b60006020820190508181036000830152612dc281612d86565b9050919050565b7f4e487b7100000000000000000000000000000000000000000000000000000000600052603260045260246000fd5b7f4e487b7100000000000000000000000000000000000000000000000000000000600052601160045260246000fd5b6000612e3282612348565b91507fffffffffffffffffffffffffffffffffffffffffffffffffffffffffffffffff8203612e6457612e63612df8565b5b600182019050919050565b600081905092915050565b6000612e8582612296565b612e8f8185612e6f565b9350612e9f8185602086016122b2565b80840191505092915050565b6000612eb78285612e7a565b9150612ec38284612e7a565b91508190509392505050565b7f4f776e61626c653a206e6577206f776e657220697320746865207a65726f206160008201527f6464726573730000000000000000000000000000000000000000000000000000602082015250565b6000612f2b6026836122a1565b9150612f3682612ecf565b604082019050919050565b60006020820190508181036000830152612f5a81612f1e565b9050919050565b6000819050919050565b612f7c612f7782612348565b612f61565b82525050565b60008160601b9050919050565b6000612f9a82612f82565b9050919050565b6000612fac82612f8f565b9050919050565b612fc4612fbf826123cb565b612fa1565b82525050565b6000612fd68285612f6b565b602082019150612fe68284612fb3565b6014820191508190509392505050565b7f4e487b7100000000000000000000000000000000000000000000000000000000600052601260045260246000fd5b600061303082612348565b915061303b83612348565b92508261304b5761304a612ff6565b5b828206905092915050565b60008190508160005260206000209050919050565b60006020601f8301049050919050565b600082821b905092915050565b6000600883026130b87fffffffffffffffffffffffffffffffffffffffffffffffffffffffffffffffff8261307b565b6130c2868361307b565b95508019841693508086168417925050509392505050565b6000819050919050565b60006130ff6130fa6130f584612348565b6130da565b612348565b9050919050565b6000819050919050565b613119836130e4565b61312d61312582613106565b848454613088565b825550505050565b600090565b613142613135565b61314d818484613110565b505050565b5b818110156131715761316660008261313a565b600181019050613153565b5050565b601f8211156131b65761318781613056565b6131908461306b565b8101602085101561319f578190505b6131b36131ab8561306b565b830182613152565b50505b505050565b600082821c905092915050565b60006131d9600019846008026131bb565b1980831691505092915050565b60006131f283836131c8565b9150826002028217905092915050565b61320b82612296565b67ffffffffffffffff811115613224576132236124d0565b5b61322e8254612a78565b613239828285613175565b600060209050601f83116001811461326c576000841561325a578287015190505b61326485826131e6565b8655506132cc565b601f19841661327a86613056565b60005b828110156132a25784890151825560018201915060208501945060208101905061327d565b868310156132bf57848901516132bb601f8916826131c8565b8355505b6001600288020188555050505b505050505050565b60006040820190506132e96000830185612811565b81810360208301526132fb81846122ed565b90509392505050565b7f4552433732313a207472616e736665722066726f6d20696e636f72726563742060008201527f6f776e6572000000000000000000000000000000000000000000000000000000602082015250565b60006133606025836122a1565b915061336b82613304565b604082019050919050565b6000602082019050818103600083015261338f81613353565b9050919050565b7f4552433732313a207472616e7366657220746f20746865207a65726f2061646460008201527f7265737300000000000000000000000000000000000000000000000000000000602082015250565b60006133f26024836122a1565b91506133fd82613396565b604082019050919050565b60006020820190508181036000830152613421816133e5565b9050919050565b7f4f776e61626c653a2063616c6c6572206973206e6f7420746865206f776e6572600082015250565b600061345e6020836122a1565b915061346982613428565b602082019050919050565b6000602082019050818103600083015261348d81613451565b9050919050565b7f4552433732313a20617070726f766520746f2063616c6c657200000000000000600082015250565b60006134ca6019836122a1565b91506134d582613494565b602082019050919050565b600060208201905081810360008301526134f9816134bd565b9050919050565b7f4552433732313a207472616e7366657220746f206e6f6e20455243373231526560008201527f63656976657220696d706c656d656e7465720000000000000000000000000000602082015250565b600061355c6032836122a1565b915061356782613500565b604082019050919050565b6000602082019050818103600083015261358b8161354f565b9050919050565b600081519050919050565b600082825260208201905092915050565b60006135b982613592565b6135c3818561359d565b93506135d38185602086016122b2565b6135dc816122dc565b840191505092915050565b60006080820190506135fc60008301876123dd565b61360960208301866123dd565b6136166040830185612811565b818103606083015261362881846135ae565b905095945050505050565b60008151905061364281612207565b92915050565b60006020828403121561365e5761365d6121d1565b5b600061366c84828501613633565b91505092915050565b7f4552433732313a206d696e7420746f20746865207a65726f2061646472657373600082015250565b60006136ab6020836122a1565b91506136b682613675565b602082019050919050565b600060208201905081810360008301526136da8161369e565b9050919050565b7f4552433732313a20746f6b656e20616c7265616479206d696e74656400000000600082015250565b6000613717601c836122a1565b9150613722826136e1565b602082019050919050565b600060208201905081810360008301526137468161370a565b905091905056fea26469706673582212201017ddb32b09949bed93a2120e1a94fa09feba58bb430fe28df9a8c69e0fc4a964736f6c63430008130033",
  "linkReferences": {},
  "deployedLinkReferences": {}
}